{
  "contractName": "CurationMarket",
  "abi": [
    {
      "constant": true,
      "inputs": [],
      "name": "LN2",
      "outputs": [
        {
          "name": "",
          "type": "uint256"
        }
      ],
      "payable": false,
      "stateMutability": "view",
      "type": "function"
    },
    {
      "constant": true,
      "inputs": [],
      "name": "reserveRatio",
      "outputs": [
        {
          "name": "",
          "type": "uint32"
        }
      ],
      "payable": false,
      "stateMutability": "view",
      "type": "function"
    },
    {
      "constant": true,
      "inputs": [
        {
          "name": "",
          "type": "address"
        }
      ],
      "name": "mProviders",
      "outputs": [
        {
          "name": "provider",
          "type": "address"
        },
        {
          "name": "numOCN",
          "type": "uint256"
        },
        {
          "name": "allowanceOCN",
          "type": "uint256"
        },
        {
          "name": "uploadBits",
          "type": "uint256"
        },
        {
          "name": "downloadBits",
          "type": "uint256"
        }
      ],
      "payable": false,
      "stateMutability": "view",
      "type": "function"
    },
    {
      "constant": true,
      "inputs": [],
      "name": "totalSupply",
      "outputs": [
        {
          "name": "",
          "type": "uint256"
        }
      ],
      "payable": false,
      "stateMutability": "view",
      "type": "function"
    },
    {
      "constant": true,
      "inputs": [],
      "name": "reward",
      "outputs": [
        {
          "name": "",
          "type": "uint256"
        }
      ],
      "payable": false,
      "stateMutability": "view",
      "type": "function"
    },
    {
      "constant": true,
      "inputs": [
        {
          "name": "",
          "type": "uint256"
        }
      ],
      "name": "mAssets",
      "outputs": [
        {
          "name": "ndrops",
          "type": "uint256"
        },
        {
          "name": "bitSize",
          "type": "uint256"
        }
      ],
      "payable": false,
      "stateMutability": "view",
      "type": "function"
    },
    {
      "constant": true,
      "inputs": [],
      "name": "LOG2_E",
      "outputs": [
        {
          "name": "",
          "type": "uint256"
        }
      ],
      "payable": false,
      "stateMutability": "view",
      "type": "function"
    },
    {
      "constant": true,
      "inputs": [
        {
          "name": "_supply",
          "type": "uint256"
        },
        {
          "name": "_connectorBalance",
          "type": "uint256"
        },
        {
          "name": "_connectorWeight",
          "type": "uint32"
        },
        {
          "name": "_depositAmount",
          "type": "uint256"
        }
      ],
      "name": "calculatePurchaseReturn",
      "outputs": [
        {
          "name": "",
          "type": "uint256"
        }
      ],
      "payable": false,
      "stateMutability": "view",
      "type": "function"
    },
    {
      "constant": true,
      "inputs": [],
      "name": "Rtotal",
      "outputs": [
        {
          "name": "",
          "type": "uint256"
        }
      ],
      "payable": false,
      "stateMutability": "view",
      "type": "function"
    },
    {
      "constant": true,
      "inputs": [
        {
          "name": "_supply",
          "type": "uint256"
        },
        {
          "name": "_connectorBalance",
          "type": "uint256"
        },
        {
          "name": "_connectorWeight",
          "type": "uint32"
        },
        {
          "name": "_sellAmount",
          "type": "uint256"
        }
      ],
      "name": "calculateSaleReturn",
      "outputs": [
        {
          "name": "",
          "type": "uint256"
        }
      ],
      "payable": false,
      "stateMutability": "view",
      "type": "function"
    },
    {
      "constant": true,
      "inputs": [],
      "name": "version",
      "outputs": [
        {
          "name": "",
          "type": "string"
        }
      ],
      "payable": false,
      "stateMutability": "view",
      "type": "function"
    },
    {
      "constant": true,
      "inputs": [],
      "name": "rewardPool",
      "outputs": [
        {
          "name": "",
          "type": "uint256"
        }
      ],
      "payable": false,
      "stateMutability": "view",
      "type": "function"
    },
    {
      "constant": true,
      "inputs": [],
      "name": "mAllowance",
      "outputs": [
        {
          "name": "",
          "type": "uint256"
        }
      ],
      "payable": false,
      "stateMutability": "view",
      "type": "function"
    },
    {
      "constant": true,
      "inputs": [],
      "name": "poolBalance",
      "outputs": [
        {
          "name": "",
          "type": "uint256"
        }
      ],
      "payable": false,
      "stateMutability": "view",
      "type": "function"
    },
    {
      "constant": true,
      "inputs": [],
      "name": "ONE",
      "outputs": [
        {
          "name": "",
          "type": "uint256"
        }
      ],
      "payable": false,
      "stateMutability": "view",
      "type": "function"
    },
    {
      "constant": true,
      "inputs": [],
      "name": "mToken",
      "outputs": [
        {
          "name": "",
          "type": "address"
        }
      ],
      "payable": false,
      "stateMutability": "view",
      "type": "function"
    },
    {
      "constant": true,
      "inputs": [],
      "name": "tcr",
      "outputs": [
        {
          "name": "",
          "type": "address"
        }
      ],
      "payable": false,
      "stateMutability": "view",
      "type": "function"
    },
    {
      "constant": true,
      "inputs": [],
      "name": "tokensToMint",
      "outputs": [
        {
          "name": "",
          "type": "uint256"
        }
      ],
      "payable": false,
      "stateMutability": "view",
      "type": "function"
    },
    {
      "constant": true,
      "inputs": [],
      "name": "Rij",
      "outputs": [
        {
          "name": "",
          "type": "uint256"
        }
      ],
      "payable": false,
      "stateMutability": "view",
      "type": "function"
    },
    {
      "constant": true,
      "inputs": [],
      "name": "mOwner",
      "outputs": [
        {
          "name": "",
          "type": "address"
        }
      ],
      "payable": false,
      "stateMutability": "view",
      "type": "function"
    },
    {
      "constant": false,
      "inputs": [
        {
          "name": "_newOwner",
          "type": "address"
        }
      ],
      "name": "transferOwnership",
      "outputs": [],
      "payable": false,
      "stateMutability": "nonpayable",
      "type": "function"
    },
    {
      "constant": true,
      "inputs": [],
      "name": "Rdiff",
      "outputs": [
        {
          "name": "",
          "type": "uint256"
        }
      ],
      "payable": false,
      "stateMutability": "view",
      "type": "function"
    },
    {
      "inputs": [
        {
          "name": "_tokenAddress",
          "type": "address"
        },
        {
          "name": "_tcrAddress",
          "type": "address"
        }
      ],
      "payable": false,
      "stateMutability": "nonpayable",
      "type": "constructor"
    },
    {
      "anonymous": false,
      "inputs": [
        {
          "indexed": true,
          "name": "previousOwner",
          "type": "address"
        },
        {
          "indexed": true,
          "name": "newOwner",
          "type": "address"
        }
      ],
      "name": "OwnershipTransferred",
      "type": "event"
    },
    {
      "constant": true,
      "inputs": [],
      "name": "numBuyDrops",
      "outputs": [
        {
          "name": "",
          "type": "uint256"
        }
      ],
      "payable": false,
      "stateMutability": "view",
      "type": "function"
    },
    {
      "constant": true,
      "inputs": [
        {
          "name": "assetId",
          "type": "uint256"
        }
      ],
      "name": "dropsBalance",
      "outputs": [
        {
          "name": "",
          "type": "uint256"
        }
      ],
      "payable": false,
      "stateMutability": "view",
      "type": "function"
    },
    {
      "constant": true,
      "inputs": [
        {
          "name": "assetId",
          "type": "uint256"
        }
      ],
      "name": "numDownload",
      "outputs": [
        {
          "name": "",
          "type": "uint256"
        }
      ],
      "payable": false,
      "stateMutability": "view",
      "type": "function"
    },
    {
      "constant": true,
      "inputs": [],
      "name": "queryRij",
      "outputs": [
        {
          "name": "",
          "type": "uint256"
        }
      ],
      "payable": false,
      "stateMutability": "view",
      "type": "function"
    },
    {
      "constant": true,
      "inputs": [],
      "name": "queryRdiff",
      "outputs": [
        {
          "name": "",
          "type": "uint256"
        }
      ],
      "payable": false,
      "stateMutability": "view",
      "type": "function"
    },
    {
      "constant": true,
      "inputs": [],
      "name": "queryReward",
      "outputs": [
        {
          "name": "",
          "type": "uint256"
        }
      ],
      "payable": false,
      "stateMutability": "view",
      "type": "function"
    },
    {
      "constant": true,
      "inputs": [],
      "name": "queryRewardPool",
      "outputs": [
        {
          "name": "",
          "type": "uint256"
        }
      ],
      "payable": false,
      "stateMutability": "view",
      "type": "function"
    },
    {
      "constant": true,
      "inputs": [],
      "name": "tokenBalance",
      "outputs": [
        {
          "name": "",
          "type": "uint256"
        }
      ],
      "payable": false,
      "stateMutability": "view",
      "type": "function"
    },
    {
      "constant": false,
      "inputs": [
        {
          "name": "assetId",
          "type": "uint256"
        }
      ],
      "name": "register",
      "outputs": [
        {
          "name": "success",
          "type": "bool"
        }
      ],
      "payable": false,
      "stateMutability": "nonpayable",
      "type": "function"
    },
    {
      "constant": false,
      "inputs": [
        {
          "name": "amount",
          "type": "uint256"
        }
      ],
      "name": "requestTokens",
      "outputs": [
        {
          "name": "",
          "type": "uint256"
        }
      ],
      "payable": false,
      "stateMutability": "nonpayable",
      "type": "function"
    },
    {
      "constant": false,
      "inputs": [
        {
          "name": "assetId",
          "type": "uint256"
        }
      ],
      "name": "serveRequest",
      "outputs": [
        {
          "name": "",
          "type": "bool"
        }
      ],
      "payable": false,
      "stateMutability": "nonpayable",
      "type": "function"
    },
    {
      "constant": false,
      "inputs": [
        {
          "name": "assetId",
          "type": "uint256"
        }
      ],
      "name": "calcReward",
      "outputs": [
        {
          "name": "",
          "type": "bool"
        }
      ],
      "payable": false,
      "stateMutability": "nonpayable",
      "type": "function"
    },
    {
      "constant": false,
      "inputs": [],
      "name": "withdraw",
      "outputs": [
        {
          "name": "",
          "type": "bool"
        }
      ],
      "payable": false,
      "stateMutability": "nonpayable",
      "type": "function"
    },
    {
      "constant": false,
      "inputs": [],
      "name": "mintToken",
      "outputs": [
        {
          "name": "balance",
          "type": "uint256"
        }
      ],
      "payable": false,
      "stateMutability": "nonpayable",
      "type": "function"
    },
    {
      "constant": false,
      "inputs": [
        {
          "name": "_assetId",
          "type": "uint256"
        },
        {
          "name": "_ocn",
          "type": "uint256"
        }
      ],
      "name": "buyDrops",
      "outputs": [
        {
          "name": "_drops",
          "type": "uint256"
        }
      ],
      "payable": false,
      "stateMutability": "nonpayable",
      "type": "function"
    },
    {
      "constant": false,
      "inputs": [
        {
          "name": "_assetId",
          "type": "uint256"
        },
        {
          "name": "_drops",
          "type": "uint256"
        }
      ],
      "name": "sellDrops",
      "outputs": [
        {
          "name": "_ocn",
          "type": "uint256"
        }
      ],
      "payable": false,
      "stateMutability": "nonpayable",
      "type": "function"
    },
    {
      "constant": false,
      "inputs": [
        {
          "name": "_assetId",
          "type": "uint256"
        }
      ],
      "name": "calcRij",
      "outputs": [
        {
          "name": "",
          "type": "uint256"
        }
      ],
      "payable": false,
      "stateMutability": "nonpayable",
      "type": "function"
    },
    {
      "constant": false,
      "inputs": [
        {
          "name": "secret",
          "type": "uint256"
        }
      ],
      "name": "commitRandom",
      "outputs": [
        {
          "name": "success",
          "type": "bool"
        }
      ],
      "payable": false,
      "stateMutability": "nonpayable",
      "type": "function"
    },
    {
      "constant": true,
      "inputs": [],
      "name": "getRandom",
      "outputs": [
        {
          "name": "",
          "type": "uint256"
        }
      ],
      "payable": false,
      "stateMutability": "view",
      "type": "function"
    }
  ],
  "bytecode": "0x60606040526040805190810160405280600381526020017f302e3300000000000000000000000000000000000000000000000000000000008152506000908051906020019062000051929190620012b5565b506040805190810160405280600381526020017f302e330000000000000000000000000000000000000000000000000000000000815250608190805190602001906200009f929190620012b5565b50610100608d556103e8608e5560fa608f556207a120609060006101000a81548163ffffffff021916908363ffffffff16021790555060006091553415620000e657600080fd5b60405160408062003f5483398101604052808051906020019091908051906020019091905050701c35fedd14ffffffffffffffffffffffff600160206080811015156200012f57fe5b0181905550701b0ce43b323fffffffffffffffffffffff600160216080811015156200015757fe5b01819055507019f0028ec1ffffffffffffffffffffffff600160226080811015156200017f57fe5b01819055507018ded91f0e7fffffffffffffffffffffff60016023608081101515620001a757fe5b01819055507017d8ec7f0417ffffffffffffffffffffff60016024608081101515620001cf57fe5b01819055507016ddc6556cdbffffffffffffffffffffff60016025608081101515620001f757fe5b01819055507015ecf52776a1ffffffffffffffffffffff600160266080811015156200021f57fe5b01819055507015060c256cb2ffffffffffffffffffffff600160276080811015156200024757fe5b0181905550701428a2f98d72ffffffffffffffffffffff600160286080811015156200026f57fe5b01819055507013545598e5c23fffffffffffffffffffff600160296080811015156200029757fe5b0181905550701288c4161ce1dfffffffffffffffffffff6001602a608081101515620002bf57fe5b01819055507011c592761c666fffffffffffffffffffff6001602b608081101515620002e757fe5b018190555070110a688680a757ffffffffffffffffffff6001602c6080811015156200030f57fe5b0181905550701056f1b5bedf77ffffffffffffffffffff6001602d6080811015156200033757fe5b0181905550700faadceceeff8bffffffffffffffffffff6001602e6080811015156200035f57fe5b0181905550700f05dc6b27edadffffffffffffffffffff6001602f6080811015156200038757fe5b0181905550700e67a5a25da4107fffffffffffffffffff60016030608081101515620003af57fe5b0181905550700dcff115b14eedffffffffffffffffffff60016031608081101515620003d757fe5b0181905550700d3e7a392431239fffffffffffffffffff60016032608081101515620003ff57fe5b0181905550700cb2ff529eb71e4fffffffffffffffffff600160336080811015156200042757fe5b0181905550700c2d415c3db974afffffffffffffffffff600160346080811015156200044f57fe5b0181905550700bad03e7d883f69bffffffffffffffffff600160356080811015156200047757fe5b0181905550700b320d03b2c343d5ffffffffffffffffff600160366080811015156200049f57fe5b0181905550700abc25204e02828dffffffffffffffffff60016037608081101515620004c757fe5b0181905550700a4b16f74ee4bb207fffffffffffffffff60016038608081101515620004ef57fe5b01819055507009deaf736ac1f569ffffffffffffffffff600160396080811015156200051757fe5b0181905550700976bd9952c7aa957fffffffffffffffff6001603a6080811015156200053f57fe5b01819055507009131271922eaa606fffffffffffffffff6001603b6080811015156200056757fe5b01819055507008b380f3558668c46fffffffffffffffff6001603c6080811015156200058f57fe5b0181905550700857ddf0117efa215bffffffffffffffff6001603d608081101515620005b757fe5b01819055507007ffffffffffffffffffffffffffffffff6001603e608081101515620005df57fe5b01819055507007abbf6f6abb9d087fffffffffffffffff6001603f6080811015156200060757fe5b018190555070075af62cbac95f7dfa7fffffffffffffff600160406080811015156200062f57fe5b018190555070070d7fb7452e187ac13fffffffffffffff600160416080811015156200065757fe5b01819055507006c3390ecc8af379295fffffffffffffff600160426080811015156200067f57fe5b018190555070067c00a3b07ffc01fd6fffffffffffffff60016043608081101515620006a757fe5b0181905550700637b647c39cbb9d3d27ffffffffffffff60016044608081101515620006cf57fe5b01819055507005f63b1fc104dbd39587ffffffffffffff60016045608081101515620006f757fe5b01819055507005b771955b36e12f7235ffffffffffffff600160466080811015156200071f57fe5b018190555070057b3d49dda84556d6f6ffffffffffffff600160476080811015156200074757fe5b018190555070054183095b2c8ececf30ffffffffffffff600160486080811015156200076f57fe5b018190555070050a28be635ca2b888f77fffffffffffff600160496080811015156200079757fe5b01819055507004d5156639708c9db33c3fffffffffffff6001604a608081101515620007bf57fe5b01819055507004a23105873875bd52dfdfffffffffffff6001604b608081101515620007e757fe5b0181905550700471649d87199aa990756fffffffffffff6001604c6080811015156200080f57fe5b01819055507004429a21a029d4c1457cfbffffffffffff6001604d6080811015156200083757fe5b0181905550700415bc6d6fb7dd71af2cb3ffffffffffff6001604e6080811015156200085f57fe5b01819055507003eab73b3bbfe282243ce1ffffffffffff6001604f6080811015156200088757fe5b01819055507003c1771ac9fb6b4c18e229ffffffffffff60016050608081101515620008af57fe5b0181905550700399e96897690418f785257fffffffffff60016051608081101515620008d757fe5b0181905550700373fc456c53bb779bf0ea9fffffffffff60016052608081101515620008ff57fe5b018190555070034f9e8e490c48e67e6ab8bfffffffffff600160536080811015156200092757fe5b018190555070032cbfd4a7adc790560b3337ffffffffff600160546080811015156200094f57fe5b018190555070030b50570f6e5d2acca94613ffffffffff600160556080811015156200097757fe5b01819055507002eb40f9f620fda6b56c2861ffffffffff600160566080811015156200099f57fe5b01819055507002cc8340ecb0d0f520a6af58ffffffffff60016057608081101515620009c757fe5b01819055507002af09481380a0a35cf1ba02ffffffffff60016058608081101515620009ef57fe5b0181905550700292c5bdd3b92ec810287b1b3fffffffff6001605960808110151562000a1757fe5b0181905550700277abdcdab07d5a77ac6d6b9fffffffff6001605a60808110151562000a3f57fe5b018190555070025daf6654b1eaa55fd64df5efffffffff6001605b60808110151562000a6757fe5b0181905550700244c49c648baa98192dce88b7ffffffff6001605c60808110151562000a8f57fe5b018190555070022ce03cd5619a311b2471268bffffffff6001605d60808110151562000ab757fe5b0181905550700215f77c045fbe885654a44a0fffffffff6001605e60808110151562000adf57fe5b01819055507001ffffffffffffffffffffffffffffffff6001605f60808110151562000b0757fe5b01819055507001eaefdbdaaee7421fc4d3ede5ffffffff6001606060808110151562000b2f57fe5b01819055507001d6bd8b2eb257df7e8ca57b09bfffffff6001606160808110151562000b5757fe5b01819055507001c35fedd14b861eb0443f7f133fffffff6001606260808110151562000b7f57fe5b01819055507001b0ce43b322bcde4a56e8ada5afffffff6001606360808110151562000ba757fe5b018190555070019f0028ec1fff007f5a195a39dfffffff6001606460808110151562000bcf57fe5b018190555070018ded91f0e72ee74f49b15ba527ffffff6001606560808110151562000bf757fe5b018190555070017d8ec7f04136f4e5615fd41a63ffffff6001606660808110151562000c1f57fe5b018190555070016ddc6556cdb84bdc8d12d22e6fffffff6001606760808110151562000c4757fe5b018190555070015ecf52776a1155b5bd8395814f7fffff6001606860808110151562000c6f57fe5b018190555070015060c256cb23b3b3cc3754cf40ffffff6001606960808110151562000c9757fe5b01819055507001428a2f98d728ae223ddab715be3fffff6001606a60808110151562000cbf57fe5b018190555070013545598e5c23276ccf0ede68034fffff6001606b60808110151562000ce757fe5b01819055507001288c4161ce1d6f54b7f61081194fffff6001606c60808110151562000d0f57fe5b018190555070011c592761c666aa641d5a01a40f17ffff6001606d60808110151562000d3757fe5b0181905550700110a688680a7530515f3e6e6cfdcdffff6001606e60808110151562000d5f57fe5b01819055507001056f1b5bedf75c6bcb2ce8aed428ffff6001606f60808110151562000d8757fe5b01819055506ffaadceceeff8a0890f3875f008277fff6001607060808110151562000dae57fe5b01819055506ff05dc6b27edad306388a600f6ba0bfff6001607160808110151562000dd557fe5b01819055506fe67a5a25da41063de1495d5b18cdbfff6001607260808110151562000dfc57fe5b01819055506fdcff115b14eedde6fc3aa5353f2e4fff6001607360808110151562000e2357fe5b01819055506fd3e7a3924312399f9aae2e0f868f8fff6001607460808110151562000e4a57fe5b01819055506fcb2ff529eb71e41582cccd5a1ee26fff6001607560808110151562000e7157fe5b01819055506fc2d415c3db974ab32a51840c0b67edff6001607660808110151562000e9857fe5b01819055506fbad03e7d883f69ad5b0a186184e06bff6001607760808110151562000ebf57fe5b01819055506fb320d03b2c343d4829abd6075f0cc5ff6001607860808110151562000ee657fe5b01819055506fabc25204e02828d73c6e80bcdb1a95bf6001607960808110151562000f0d57fe5b01819055506fa4b16f74ee4bb2040a1ec6c15fbbf2df6001607a60808110151562000f3457fe5b01819055506f9deaf736ac1f569deb1b5ae3f36c130f6001607b60808110151562000f5b57fe5b01819055506f976bd9952c7aa957f5937d790ef650376001607c60808110151562000f8257fe5b01819055506f9131271922eaa6064b73a22d0bd4f2bf6001607d60808110151562000fa957fe5b01819055506f8b380f3558668c46c91c49a2f8e967b96001607e60808110151562000fd057fe5b01819055506f857ddf0117efa215952912839f6473e66001607f60808110151562000ff757fe5b018190555033608260006101000a81548173ffffffffffffffffffffffffffffffffffffffff021916908373ffffffffffffffffffffffffffffffffffffffff160217905550600073ffffffffffffffffffffffffffffffffffffffff168273ffffffffffffffffffffffffffffffffffffffff16141515156200107a57600080fd5b81608560006101000a81548173ffffffffffffffffffffffffffffffffffffffff021916908373ffffffffffffffffffffffffffffffffffffffff16021790555080609260006101000a81548173ffffffffffffffffffffffffffffffffffffffff021916908373ffffffffffffffffffffffffffffffffffffffff160217905550608560009054906101000a900473ffffffffffffffffffffffffffffffffffffffff1673ffffffffffffffffffffffffffffffffffffffff1663718da7ee306040518263ffffffff167c0100000000000000000000000000000000000000000000000000000000028152600401808273ffffffffffffffffffffffffffffffffffffffff1673ffffffffffffffffffffffffffffffffffffffff168152602001915050602060405180830381600087803b1515620011b957600080fd5b5af11515620011c757600080fd5b5050506040518051905050608560009054906101000a900473ffffffffffffffffffffffffffffffffffffffff1673ffffffffffffffffffffffffffffffffffffffff166370a08231306040518263ffffffff167c0100000000000000000000000000000000000000000000000000000000028152600401808273ffffffffffffffffffffffffffffffffffffffff1673ffffffffffffffffffffffffffffffffffffffff168152602001915050602060405180830381600087803b15156200128f57600080fd5b5af115156200129d57600080fd5b50505060405180519050608681905550505062001364565b828054600181600116156101000203166002900490600052602060002090601f016020900481019282601f10620012f857805160ff191683800117855562001329565b8280016001018555821562001329579182015b82811115620013285782518255916020019190600101906200130b565b5b5090506200133891906200133c565b5090565b6200136191905b808211156200135d57600081600090555060010162001343565b5090565b90565b612be080620013746000396000f3006060604052600436106101f9576000357c0100000000000000000000000000000000000000000000000000000000900463ffffffff168063024abbe9146101fe57806302780677146102355780630c7d5cd81461025e5780631642cfbb1461029357806318160ddd146103285780632004ffd914610351578063228cb7331461037a578063242d9b12146103a357806324902e24146103e157806329a00e7c1461040a5780632c70186c146104625780632c79db111461048b5780633ccfd60b146104b457806340124ea8146104e157806349f9b0f7146105185780634faaf60d14610570578063544c465c146105ab57806354fd4d50146105e657806358bd19951461067457806366666aa9146106b45780636855d79d146106dd57806376559e2d1461070657806396365d441461072f5780639e1a4d1914610758578063a152a9d114610781578063aacc5a17146107aa578063b8ef5a38146107d3578063be2391081461080a578063c2ee3a0814610845578063c3b6f9391461086e578063c438aeb5146108c3578063c6beb88414610918578063cb764d0814610958578063cbafee8a14610981578063d2af738d146109aa578063dcda4bf3146109d3578063eef9c27c14610a28578063f207564e14610a5f578063f2fde38b14610a9a578063f40012f914610ad3578063fdccc71c14610afc575b600080fd5b341561020957600080fd5b61021f6004808035906020019091905050610b25565b6040518082815260200191505060405180910390f35b341561024057600080fd5b610248610e45565b6040518082815260200191505060405180910390f35b341561026957600080fd5b610271610e51565b604051808263ffffffff1663ffffffff16815260200191505060405180910390f35b341561029e57600080fd5b6102ca600480803573ffffffffffffffffffffffffffffffffffffffff16906020019091905050610e67565b604051808673ffffffffffffffffffffffffffffffffffffffff1673ffffffffffffffffffffffffffffffffffffffff1681526020018581526020018481526020018381526020018281526020019550505050505060405180910390f35b341561033357600080fd5b61033b610ebd565b6040518082815260200191505060405180910390f35b341561035c57600080fd5b610364610ec3565b6040518082815260200191505060405180910390f35b341561038557600080fd5b61038d61113b565b6040518082815260200191505060405180910390f35b34156103ae57600080fd5b6103c46004808035906020019091905050611141565b604051808381526020018281526020019250505060405180910390f35b34156103ec57600080fd5b6103f4611165565b6040518082815260200191505060405180910390f35b341561041557600080fd5b61044c600480803590602001909190803590602001909190803563ffffffff16906020019091908035906020019091905050611172565b6040518082815260200191505060405180910390f35b341561046d57600080fd5b610475611273565b6040518082815260200191505060405180910390f35b341561049657600080fd5b61049e611279565b6040518082815260200191505060405180910390f35b34156104bf57600080fd5b6104c7611283565b604051808215151515815260200191505060405180910390f35b34156104ec57600080fd5b6105026004808035906020019091905050611461565b6040518082815260200191505060405180910390f35b341561052357600080fd5b61055a600480803590602001909190803590602001909190803563ffffffff169060200190919080359060200190919050506114e3565b6040518082815260200191505060405180910390f35b341561057b57600080fd5b6105916004808035906020019091905050611617565b604051808215151515815260200191505060405180910390f35b34156105b657600080fd5b6105cc600480803590602001909190505061170b565b604051808215151515815260200191505060405180910390f35b34156105f157600080fd5b6105f961172c565b6040518080602001828103825283818151815260200191508051906020019080838360005b8381101561063957808201518184015260208101905061061e565b50505050905090810190601f1680156106665780820380516001836020036101000a031916815260200191505b509250505060405180910390f35b341561067f57600080fd5b61069e60048080359060200190919080359060200190919050506117ca565b6040518082815260200191505060405180910390f35b34156106bf57600080fd5b6106c7611a0d565b6040518082815260200191505060405180910390f35b34156106e857600080fd5b6106f0611a13565b6040518082815260200191505060405180910390f35b341561071157600080fd5b610719611a42565b6040518082815260200191505060405180910390f35b341561073a57600080fd5b610742611a48565b6040518082815260200191505060405180910390f35b341561076357600080fd5b61076b611a4e565b6040518082815260200191505060405180910390f35b341561078c57600080fd5b610794611b1f565b6040518082815260200191505060405180910390f35b34156107b557600080fd5b6107bd611b29565b6040518082815260200191505060405180910390f35b34156107de57600080fd5b6107f46004808035906020019091905050611b40565b6040518082815260200191505060405180910390f35b341561081557600080fd5b61082b6004808035906020019091905050611bc2565b604051808215151515815260200191505060405180910390f35b341561085057600080fd5b610858611bdd565b6040518082815260200191505060405180910390f35b341561087957600080fd5b610881611bea565b604051808273ffffffffffffffffffffffffffffffffffffffff1673ffffffffffffffffffffffffffffffffffffffff16815260200191505060405180910390f35b34156108ce57600080fd5b6108d6611c10565b604051808273ffffffffffffffffffffffffffffffffffffffff1673ffffffffffffffffffffffffffffffffffffffff16815260200191505060405180910390f35b341561092357600080fd5b6109426004808035906020019091908035906020019091905050611c36565b6040518082815260200191505060405180910390f35b341561096357600080fd5b61096b611fba565b6040518082815260200191505060405180910390f35b341561098c57600080fd5b610994611fc4565b6040518082815260200191505060405180910390f35b34156109b557600080fd5b6109bd611fca565b6040518082815260200191505060405180910390f35b34156109de57600080fd5b6109e6611fd0565b604051808273ffffffffffffffffffffffffffffffffffffffff1673ffffffffffffffffffffffffffffffffffffffff16815260200191505060405180910390f35b3415610a3357600080fd5b610a496004808035906020019091905050611ff6565b6040518082815260200191505060405180910390f35b3415610a6a57600080fd5b610a80600480803590602001909190505061213b565b604051808215151515815260200191505060405180910390f35b3415610aa557600080fd5b610ad1600480803573ffffffffffffffffffffffffffffffffffffffff169060200190919050506122ed565b005b3415610ade57600080fd5b610ae66123c9565b6040518082815260200191505060405180910390f35b3415610b0757600080fd5b610b0f6123d3565b6040518082815260200191505060405180910390f35b6000806000806000608460003373ffffffffffffffffffffffffffffffffffffffff1673ffffffffffffffffffffffffffffffffffffffff16815260200190815260200160002060000160009054906101000a900473ffffffffffffffffffffffffffffffffffffffff1673ffffffffffffffffffffffffffffffffffffffff1614151515610bb357600080fd5b60006087541415610bc75760009350610e3d565b610c306000610c286083600089815260200190815260200160002060020160003373ffffffffffffffffffffffffffffffffffffffff1673ffffffffffffffffffffffffffffffffffffffff168152602001908152602001600020546123d9565b60ff1661246b565b9250610c9b6000610c936083600089815260200190815260200160002060030160003373ffffffffffffffffffffffffffffffffffffffff1673ffffffffffffffffffffffffffffffffffffffff168152602001908152602001600020546123d9565b60ff1661246b565b91506000608460003373ffffffffffffffffffffffffffffffffffffffff1673ffffffffffffffffffffffffffffffffffffffff16815260200190815260200160002060040154141515610d8057608460003373ffffffffffffffffffffffffffffffffffffffff1673ffffffffffffffffffffffffffffffffffffffff16815260200190815260200160002060040154608460003373ffffffffffffffffffffffffffffffffffffffff1673ffffffffffffffffffffffffffffffffffffffff16815260200190815260200160002060030154811515610d7857fe5b049050610d85565b600190505b8082840202608a81905550608a54608860008282540192505081905550610db360885460895460020261246b565b608981905550608954608a5460875402811515610dcc57fe5b04608b81905550608b54608760008282540392505081905550608b54608460003373ffffffffffffffffffffffffffffffffffffffff1673ffffffffffffffffffffffffffffffffffffffff16815260200190815260200160002060010160008282540192505081905550608b5493505b505050919050565b67b17217f7d1cf79ac81565b609060009054906101000a900463ffffffff1681565b60846020528060005260406000206000915090508060000160009054906101000a900473ffffffffffffffffffffffffffffffffffffffff16908060010154908060020154908060030154908060040154905085565b608e5481565b6000806000608560009054906101000a900473ffffffffffffffffffffffffffffffffffffffff1673ffffffffffffffffffffffffffffffffffffffff166370a08231306040518263ffffffff167c0100000000000000000000000000000000000000000000000000000000028152600401808273ffffffffffffffffffffffffffffffffffffffff1673ffffffffffffffffffffffffffffffffffffffff168152602001915050602060405180830381600087803b1515610f8457600080fd5b5af11515610f9157600080fd5b505050604051805190509150608560009054906101000a900473ffffffffffffffffffffffffffffffffffffffff1673ffffffffffffffffffffffffffffffffffffffff1663c89aee836040518163ffffffff167c0100000000000000000000000000000000000000000000000000000000028152600401602060405180830381600087803b151561102257600080fd5b5af1151561102f57600080fd5b50505060405180519050151561104457600080fd5b608560009054906101000a900473ffffffffffffffffffffffffffffffffffffffff1673ffffffffffffffffffffffffffffffffffffffff166370a08231306040518263ffffffff167c0100000000000000000000000000000000000000000000000000000000028152600401808273ffffffffffffffffffffffffffffffffffffffff1673ffffffffffffffffffffffffffffffffffffffff168152602001915050602060405180830381600087803b151561110057600080fd5b5af1151561110d57600080fd5b5050506040518051905090506000608781905550818103608660008282540192505081905550809250505090565b608b5481565b60836020528060005260406000206000915090508060000154908060010154905082565b680171547652b82fe17781565b600080600080600080891180156111895750600088115b801561119b575060008763ffffffff16115b80156111b65750620f424063ffffffff168763ffffffff1611155b15156111c157600080fd5b60008614156111d35760009450611267565b620f424063ffffffff168763ffffffff1614156112165761120f88611201888c61248790919063ffffffff16565b6124ba90919063ffffffff16565b9450611267565b61122988876124d590919063ffffffff16565b915061123a828989620f42406124f3565b80945081955050508260ff16611259858b61248790919063ffffffff16565b9060020a9004905088810394505b50505050949350505050565b60885481565b6000608b54905090565b600080608460003373ffffffffffffffffffffffffffffffffffffffff1673ffffffffffffffffffffffffffffffffffffffff1681526020019081526020016000206001015490506000608460003373ffffffffffffffffffffffffffffffffffffffff1673ffffffffffffffffffffffffffffffffffffffff168152602001908152602001600020600101819055508060866000828254039250508190555080608460003373ffffffffffffffffffffffffffffffffffffffff1673ffffffffffffffffffffffffffffffffffffffff16815260200190815260200160002060020160008282540392505081905550608560009054906101000a900473ffffffffffffffffffffffffffffffffffffffff1673ffffffffffffffffffffffffffffffffffffffff1663a9059cbb33836040518363ffffffff167c0100000000000000000000000000000000000000000000000000000000028152600401808373ffffffffffffffffffffffffffffffffffffffff1673ffffffffffffffffffffffffffffffffffffffff16815260200182815260200192505050602060405180830381600087803b151561143757600080fd5b5af1151561144457600080fd5b50505060405180519050151561145957600080fd5b600191505090565b6000803373ffffffffffffffffffffffffffffffffffffffff161415151561148857600080fd5b6083600083815260200190815260200160002060030160003373ffffffffffffffffffffffffffffffffffffffff1673ffffffffffffffffffffffffffffffffffffffff168152602001908152602001600020549050919050565b60008060008060008060008a1180156114fc5750600089115b801561150e575060008863ffffffff16115b80156115295750620f424063ffffffff168863ffffffff1611155b80156115355750898711155b151561154057600080fd5b6000871415611552576000955061160a565b898714156115625788955061160a565b620f424063ffffffff168863ffffffff1614156115a55761159e8a611590898c61248790919063ffffffff16565b6124ba90919063ffffffff16565b955061160a565b868a0392506115b98a84620f42408b6124f3565b80955081965050506115d4858a61248790919063ffffffff16565b91508360ff16899060020a029050611607856115f9838561255090919063ffffffff16565b6124ba90919063ffffffff16565b95505b5050505050949350505050565b600080608460003373ffffffffffffffffffffffffffffffffffffffff1673ffffffffffffffffffffffffffffffffffffffff16815260200190815260200160002060000160009054906101000a900473ffffffffffffffffffffffffffffffffffffffff1673ffffffffffffffffffffffffffffffffffffffff16141515156116a057600080fd5b60016083600084815260200190815260200160002060030160003373ffffffffffffffffffffffffffffffffffffffff1673ffffffffffffffffffffffffffffffffffffffff1681526020019081526020016000206000828254019250508190555060019050919050565b6000806087541415156117235761172182610b25565b505b60019050919050565b60818054600181600116156101000203166002900480601f0160208091040260200160405190810160405280929190818152602001828054600181600116156101000203166002900480156117c25780601f10611797576101008083540402835291602001916117c2565b820191906000526020600020905b8154815290600101906020018083116117a557829003601f168201915b505050505081565b6000806000608460003373ffffffffffffffffffffffffffffffffffffffff1673ffffffffffffffffffffffffffffffffffffffff16815260200190815260200160002060000160009054906101000a900473ffffffffffffffffffffffffffffffffffffffff1673ffffffffffffffffffffffffffffffffffffffff161415151561185557600080fd5b611877608e54608f54609060009054906101000a900463ffffffff16866114e3565b905061188e83608e5461255090919063ffffffff16565b608e819055506118a981608f5461255090919063ffffffff16565b608f819055506118d883608360008781526020019081526020016000206000015461255090919063ffffffff16565b608360008681526020019081526020016000206000018190555080608460003373ffffffffffffffffffffffffffffffffffffffff1673ffffffffffffffffffffffffffffffffffffffff1681526020019081526020016000206001016000828254019250508190555080608460003373ffffffffffffffffffffffffffffffffffffffff1673ffffffffffffffffffffffffffffffffffffffff1681526020019081526020016000206002016000828254019250508190555080608660008282540192505081905550826083600086815260200190815260200160002060020160003373ffffffffffffffffffffffffffffffffffffffff1673ffffffffffffffffffffffffffffffffffffffff168152602001908152602001600020600082825403925050819055508091505092915050565b60875481565b6000803373ffffffffffffffffffffffffffffffffffffffff1614151515611a3a57600080fd5b609154905090565b60865481565b608f5481565b600080608460003373ffffffffffffffffffffffffffffffffffffffff1673ffffffffffffffffffffffffffffffffffffffff16815260200190815260200160002060000160009054906101000a900473ffffffffffffffffffffffffffffffffffffffff1673ffffffffffffffffffffffffffffffffffffffff1614151515611ad757600080fd5b608460003373ffffffffffffffffffffffffffffffffffffffff1673ffffffffffffffffffffffffffffffffffffffff16815260200190815260200160002060010154905090565b6000608754905090565b6000608d54608c54811515611b3a57fe5b06905090565b6000803373ffffffffffffffffffffffffffffffffffffffff1614151515611b6757600080fd5b6083600083815260200190815260200160002060020160003373ffffffffffffffffffffffffffffffffffffffff1673ffffffffffffffffffffffffffffffffffffffff168152602001908152602001600020549050919050565b600081608c6000828254189250508190555060019050919050565b6801000000000000000081565b608560009054906101000a900473ffffffffffffffffffffffffffffffffffffffff1681565b609260009054906101000a900473ffffffffffffffffffffffffffffffffffffffff1681565b600081608460003373ffffffffffffffffffffffffffffffffffffffff1673ffffffffffffffffffffffffffffffffffffffff1681526020019081526020016000206001016000828254019250508190555081608460003373ffffffffffffffffffffffffffffffffffffffff1673ffffffffffffffffffffffffffffffffffffffff1681526020019081526020016000206002016000828254019250508190555081608660008282540192505081905550608560009054906101000a900473ffffffffffffffffffffffffffffffffffffffff1673ffffffffffffffffffffffffffffffffffffffff166323b872dd3330856040518463ffffffff167c0100000000000000000000000000000000000000000000000000000000028152600401808473ffffffffffffffffffffffffffffffffffffffff1673ffffffffffffffffffffffffffffffffffffffff1681526020018373ffffffffffffffffffffffffffffffffffffffff1673ffffffffffffffffffffffffffffffffffffffff1681526020018281526020019350505050602060405180830381600087803b1515611de057600080fd5b5af11515611ded57600080fd5b505050604051805190501515611e0257600080fd5b611e24608e54608f54609060009054906101000a900463ffffffff1685611172565b609181905550611e5560915460836000868152602001908152602001600020600001546124d590919063ffffffff16565b6083600085815260200190815260200160002060000181905550609154608e60008282540192505081905550611e9682608f546124d590919063ffffffff16565b608f8190555081608460003373ffffffffffffffffffffffffffffffffffffffff1673ffffffffffffffffffffffffffffffffffffffff1681526020019081526020016000206001016000828254039250508190555081608460003373ffffffffffffffffffffffffffffffffffffffff1673ffffffffffffffffffffffffffffffffffffffff16815260200190815260200160002060020160008282540392505081905550816086600082825403925050819055506091546083600085815260200190815260200160002060020160003373ffffffffffffffffffffffffffffffffffffffff1673ffffffffffffffffffffffffffffffffffffffff16815260200190815260200160002060008282540192505081905550609154905092915050565b6000608954905090565b60915481565b608a5481565b608260009054906101000a900473ffffffffffffffffffffffffffffffffffffffff1681565b60008060003373ffffffffffffffffffffffffffffffffffffffff161415151561201f57600080fd5b60009050826086541015156120365782905061203c565b60865490505b80608660008282540392505081905550608560009054906101000a900473ffffffffffffffffffffffffffffffffffffffff1673ffffffffffffffffffffffffffffffffffffffff1663a9059cbb33836040518363ffffffff167c0100000000000000000000000000000000000000000000000000000000028152600401808373ffffffffffffffffffffffffffffffffffffffff1673ffffffffffffffffffffffffffffffffffffffff16815260200182815260200192505050602060405180830381600087803b151561211057600080fd5b5af1151561211d57600080fd5b50505060405180519050151561213257600080fd5b80915050919050565b60008060003373ffffffffffffffffffffffffffffffffffffffff161415151561216457600080fd5b60a0604051908101604052803373ffffffffffffffffffffffffffffffffffffffff1681526020016000815260200160008152602001600081526020016000815250608460003373ffffffffffffffffffffffffffffffffffffffff1673ffffffffffffffffffffffffffffffffffffffff16815260200190815260200160002060008201518160000160006101000a81548173ffffffffffffffffffffffffffffffffffffffff021916908373ffffffffffffffffffffffffffffffffffffffff1602179055506020820151816001015560408201518160020155606082015181600301556080820151816004015590505061040090506040805190810160405280600081526020018281525060836000858152602001908152602001600020600082015181600001556020820151816001015590505080608460003373ffffffffffffffffffffffffffffffffffffffff1673ffffffffffffffffffffffffffffffffffffffff168152602001908152602001600020600301819055506001915050919050565b608260009054906101000a900473ffffffffffffffffffffffffffffffffffffffff1673ffffffffffffffffffffffffffffffffffffffff163373ffffffffffffffffffffffffffffffffffffffff1614151561234957600080fd5b600073ffffffffffffffffffffffffffffffffffffffff168173ffffffffffffffffffffffffffffffffffffffff161415151561238557600080fd5b80608260006101000a81548173ffffffffffffffffffffffffffffffffffffffff021916908373ffffffffffffffffffffffffffffffffffffffff16021790555050565b6000608a54905090565b60895481565b60008060008060009250849150610100821015612415575b6001821115612410576001829060020a900491506001830192506123f1565b612460565b608090505b60008160ff16111561245f578060ff1660019060020a028210151561244c578060ff16829060020a9004915080831792505b60018160ff169060020a9004905061241a565b5b829350505050919050565b60008183111561247d57829050612481565b8190505b92915050565b600080828402905060008414806124a857508284828115156124a557fe5b04145b15156124b057fe5b8091505092915050565b60008082848115156124c857fe5b0490508091505092915050565b60008082840190508381101515156124e957fe5b8091505092915050565b6000806000808463ffffffff168663ffffffff166125118a8a612569565b0281151561251b57fe5b049150612527826126d0565b905061254081607f0360ff16839060020a900482612790565b8193509350505094509492505050565b600082821115151561255e57fe5b818303905092915050565b60008060008060007001ffffffffffffffffffffffffffffffff871115151561258e57fe5b60009350856f8000000000000000000000000000000088028115156125af57fe5b04925070010000000000000000000000000000000083101515612618576125f06f80000000000000000000000000000000848115156125ea57fe5b046123d9565b91508160ff16839060020a900492506f800000000000000000000000000000008260ff160293505b6f800000000000000000000000000000008311156126a657607f90505b60008160ff1611156126a5576f8000000000000000000000000000000083840281151561265e57fe5b04925070010000000000000000000000000000000083101515612699576001839060020a900492506001810360ff1660019060020a02840193505b80600190039050612635565b5b607a60ff166f02c5c85fdf473de6af278ece600fcbda85029060020a900494505050505092915050565b60008060008060209250607f91505b8160ff166001840160ff16101561273157600282840160ff1681151561270157fe5b0490508460018260ff1660808110151561271757fe5b01541015156127285780925061272c565b8091505b6126df565b8460018360ff1660808110151561274457fe5b015410151561275557819350612788565b8460018460ff1660808110151561276857fe5b015410151561277957829350612788565b6000151561278357fe5b600093505b505050919050565b6000806000849150600090508360ff168583029060020a900491506f03442c4e6074a82f1797f72ac00000008202810190508360ff168583029060020a900491506f0116b96f757c380fb287fd0e400000008202810190508360ff168583029060020a900491506e45ae5bdd5f0e03eca1ff43900000008202810190508360ff168583029060020a900491506e0defabf91302cd95b9ffda500000008202810190508360ff168583029060020a900491506e02529ca9832b22439efff9b80000008202810190508360ff168583029060020a900491506d54f1cf12bd04e516b6da880000008202810190508360ff168583029060020a900491506d0a9e39e257a09ca2d6db510000008202810190508360ff168583029060020a900491506d012e066e7b839fa050c3090000008202810190508360ff168583029060020a900491506c1e33d7d926c329a1ad1a8000008202810190508360ff168583029060020a900491506c02bee513bdb4a6b19b5f8000008202810190508360ff168583029060020a900491506b3a9316fa79b88eccf2a000008202810190508360ff168583029060020a900491506b048177ebe1fa8123752000008202810190508360ff168583029060020a900491506a5263fe90242dcbacf000008202810190508360ff168583029060020a900491506a057e22099c030d941000008202810190508360ff168583029060020a900491506957e22099c030d94100008202810190508360ff168583029060020a9004915069052b6b545699763100008202810190508360ff168583029060020a90049150684985f67696bf7480008202810190508360ff168583029060020a900491506803dea12ea99e4980008202810190508360ff168583029060020a900491506731880f2214b6e0008202810190508360ff168583029060020a9004915067025bcff56eb360008202810190508360ff168583029060020a90049150661b722e10ab10008202810190508360ff168583029060020a900491506601317c700770008202810190508360ff168583029060020a90049150650cba84aafa008202810190508360ff168583029060020a900491506482573a0a008202810190508360ff168583029060020a900491506405035ad9008202810190508360ff168583029060020a90049150632f881b008202810190508360ff168583029060020a900491506301b293408202810190508360ff168583029060020a90049150620efc408202810190508360ff168583029060020a90049150617fe08202810190508360ff168583029060020a900491506104208202810190508360ff168583029060020a9004915060218202810190508360ff168583029060020a9004915060018202810190508360ff1660019060020a02856f0688589cc0e9505e2f2fee558000000083811515612ba757fe5b04010192505050929150505600a165627a7a723058204d4867898575c1001acfcbe7021176636e6c53c16b7cfe50f921d43aa5bc4a920029",
  "source": "pragma solidity ^0.4.21;\n\nimport './token/OceanToken.sol';\nimport './tcr/Registry.sol';\nimport './bondingCurve/BancorFormula.sol';\n\nimport './zeppelin/Ownable.sol';\nimport './zeppelin/SafeMath.sol';\n\n\n\ncontract CurationMarket is BancorFormula, Ownable {\n\n    using SafeMath for uint256;\n    using SafeMath for uint;\n\n    // data Asset\n    struct Asset{\n          uint256 ndrops;                         // total supply of Drops\n          uint256 bitSize;                        // size of asset in bit\n          mapping (address => uint256) drops;     // mapping provider (address) to their stakes on dataset Sij\n          mapping (address => uint256) delivery;  // mapping provider (address) to their #delivery of dataset Dj\n    }\n    mapping (uint256 => Asset) public mAssets;           // mapping assetId to Asset struct\n\n    // data Provider\n    struct Provider{\n          address provider;\n          uint256 numOCN;                        // Ocean token balance\n          uint256 allowanceOCN;                  // available Ocean tokens for transfer excuding locked tokens for staking\n          uint256 uploadBits;                    // total number of bits that served across all data assets with stakes\n          uint256 downloadBits;                  // total number of bits that download across all data assets with stakes\n    }\n    mapping (address => Provider) public mProviders;    // mapping providerId to Provider struct\n\n    // marketplace global variables\n    OceanToken  public  mToken;\n    uint256     public  mAllowance;             // total available Ocean tokens for transfer (exclude locked tokens)\n    uint256     public  rewardPool;             // T_difficulty: total OCN emitted during the interval\n    uint256     public  Rtotal;                 // sum of Rij across all assets, update incrementally every time delivery happens\n    uint256     public  Rdiff;                  // network difficulty R_difficulty\n    uint256     public  Rij;                    // added value of provider i on dataset j\n    uint256     public  reward;                 // reward value of provdier i on dataset j\n\n    // random number generation\n    uint256   random;                           // random number\n    uint256   range = 256;                            // range of random number\n\n    // bonding Curve\n    uint256 public totalSupply = 1000;          // initial total supply\n    uint256 public poolBalance = 250;           // poolBalance for specific dataset\n    uint32  public reserveRatio = 500000;      // max 1000000, reserveRatio = 20%\n    uint256 public tokensToMint = 0;\n\n    // TCR\n    Registry  public  tcr;\n\n    ///////////////////////////////////////////////////////////////////\n    //  Query function\n    ///////////////////////////////////////////////////////////////////\n    function numBuyDrops() public view returns (uint256){\n        require(msg.sender != 0x0);\n        return tokensToMint;\n    }\n\n    function dropsBalance(uint256 assetId) public view returns (uint256){\n        require(msg.sender != 0x0);\n        return mAssets[assetId].drops[msg.sender];\n    }\n\n    function numDownload(uint256 assetId) public view returns (uint256) {\n      require(msg.sender != 0x0);\n      return mAssets[assetId].delivery[msg.sender];\n    }\n\n    function queryRij() public view returns(uint256){\n      return Rij;\n    }\n\n    function queryRdiff() public view returns(uint256){\n      return Rdiff;\n    }\n\n    function queryReward() public view returns(uint256){\n      return reward;\n    }\n\n    function queryRewardPool() public view returns(uint256){\n      return rewardPool;\n    }\n\n    function tokenBalance() public view returns (uint256) {\n      require(mProviders[msg.sender].provider != 0x0);\n      return mProviders[msg.sender].numOCN;\n    }\n    ///////////////////////////////////////////////////////////////////\n    //  Constructor function\n    ///////////////////////////////////////////////////////////////////\n\n    // 1. constructor\n    function CurationMarket(address _tokenAddress, address _tcrAddress) public {\n        require(_tokenAddress != address(0));\n        // instantiate deployed Ocean token contract\n\t\t    mToken = OceanToken(_tokenAddress);\n        // instance of TCR\n        tcr = Registry(_tcrAddress);\n        // set the token receiver to be marketplace\n        mToken.setReceiver(address(this));\n        // setReceiver funciton will transfer initial funds to Market contract\n        mAllowance = mToken.balanceOf(address(this));\n        // set global R_difficulty\n        //Rdiff = 210000;\n    }\n\n    ///////////////////////////////////////////////////////////////////\n    // Actor and Asset routine procedures\n    ///////////////////////////////////////////////////////////////////\n\n    // 1. register provider and assets upload by changing uploadBits\n    function register(uint256 assetId) public returns (bool success) {\n      require(msg.sender != 0x0);\n      // register provider\n      mProviders[msg.sender] = Provider(msg.sender, 0, 0, 0, 0);\n\n      // register assets\n      uint256 fileSize = 1024;\n      mAssets[assetId] = Asset(0, fileSize);  // Creates new struct and saves in storage. We leave out the mapping type.\n\n      // simulate uploading dataSet\n      mProviders[msg.sender].uploadBits = fileSize;\n      return true;\n    }\n\n\n    // 2. request initial fund transfer\n    function requestTokens(uint256 amount) public returns (uint256) {\n      require(msg.sender != 0x0);\n      // find amount of tokens need or can be transferred\n      uint256 nToken = 0;\n      if (mAllowance >= amount){\n        nToken = amount;\n      } else {\n        nToken = mAllowance;\n      }\n      // withdraw tokens from Marketplace -> remember to decrease allowance first!!\n      mAllowance -= nToken;\n      // the OCN tokens is held in user wallet rather than market escrow accounts -> do not change provider balances\n      require(mToken.transfer(msg.sender, nToken));\n      return nToken;\n    }\n\n    // 3. provider serves data request of download - simulate\n    function serveRequest(uint256 assetId) public returns (bool) {\n      // provider exists\n      require(mProviders[msg.sender].provider != 0x0);\n      // serve the download request\n      mAssets[assetId].delivery[msg.sender] += 1;\n      return true;\n    }\n\n    // 4. calculate reward probability and amount (credit the reward to provider in escrow account)\n    function calcReward(uint256 assetId) public returns (bool) {\n      if(rewardPool != 0 ){\n        calcRij(assetId);\n      }\n      return true;\n    }\n\n    // 5. withdraw\n    function withdraw() public returns (bool) {\n      //require(mProviders[msg.sender].allowanceOCN >= mProviders[msg.sender].numOCN);\n      //require(mAllowance >= mProviders[msg.sender].numOCN);\n      uint256 amount = mProviders[msg.sender].numOCN;\n      mProviders[msg.sender].numOCN = 0;\n      mAllowance -= amount;\n      mProviders[msg.sender].allowanceOCN -= amount;\n      require(mToken.transfer(msg.sender, amount));\n      return true;\n    }\n\n\n\n\n    ///////////////////////////////////////////////////////////////////\n    // Block Reward Module\n    ///////////////////////////////////////////////////////////////////\n\n    // marketplace request the emitted Ocean Tokens which are transferred to market\n    function mintToken() public returns (uint256 balance) {\n      uint256 previous = mToken.balanceOf(address(this));\n      require(mToken.emitTokens());\n      uint256 current  = mToken.balanceOf(address(this));\n      // credit emitted tokens to block reward pool\n      //rewardPool += current - previous;\n\n      // for testing purpose to save waiting time\n      rewardPool = 0; //18000;\n\n      // raise the limit of token allowance for marketplace\n      mAllowance += current - previous;\n      // return the current token balance\n      return current;\n    }\n\n    ///////////////////////////////////////////////////////////////////\n    // Bonding Curve Module\n    ///////////////////////////////////////////////////////////////////\n\n    // 1. bondingCurve function - buy Drops - call by any actors\n    function buyDrops(uint256 _assetId, uint256 _ocn) public returns (uint256 _drops) {\n      // First transfer _ocn tokens into Marketplace escrow account to purchase Drops\n      mProviders[msg.sender].numOCN += _ocn;\n      mProviders[msg.sender].allowanceOCN += _ocn;\n      mAllowance += _ocn;\n      require(mToken.transferFrom(msg.sender, address(this), _ocn));\n\n\n      //uint256 tokensToMint = 0; mAssets[_assetId].ndrops\n      tokensToMint = calculatePurchaseReturn(totalSupply, poolBalance, reserveRatio, _ocn);\n      mAssets[_assetId].ndrops = mAssets[_assetId].ndrops.add(tokensToMint);\n\n      // 4. update balances\n\n      // increment total ndrops\n      totalSupply  += tokensToMint;\n      poolBalance = poolBalance.add(_ocn);\n\n      //mAssets[_assetId].ndrops += tokensToMint;\n      // lock ocean Tokens\n      mProviders[msg.sender].numOCN -= _ocn;\n      mProviders[msg.sender].allowanceOCN -= _ocn;\n      mAllowance -= _ocn;\n      mAssets[_assetId].drops[msg.sender] += tokensToMint;\n\n      return tokensToMint;\n    }\n\n\n    /*\n    function buyDrops(uint256 _assetId, uint256 _ocn) public returns (uint256 _drops) {\n      require(mProviders[msg.sender].provider != 0x0);\n\n      // First transfer _ocn tokens into Marketplace escrow account to purchase Drops\n      mProviders[msg.sender].numOCN += _ocn;\n      mProviders[msg.sender].allowanceOCN += _ocn;\n      // market balance and allowance are increased\n      mAllowance += _ocn;\n      require(mToken.transferFrom(msg.sender, address(this), _ocn));\n\n      //1. ndrops + _ocn < 50 OCN => simple flat line (1 Drops = 0.1 OCN)\n      uint256 amount = 0;\n\n      if (mAssets[_assetId].ndrops / 10 + _ocn <= 50 ){\n        amount = _ocn * 10;\n      }\n\n      // 2.  ndrops > 50 already => linear ratio Y= X / 5000\n      // ( ndrops / 5000 + (ndrops + x ) / 5000 ) / 2= _ocn\n      // x^2 + 2x*ndrops + ndrops^2 = 10000 * _ocn + ndrops^2\n      // ( x + ndrops )^2 = 10000 * _ocn + ndrops^2\n      // solidity cannot perform floating operation like square root => use integer operation\n      if (mAssets[_assetId].ndrops >= 500 ){\n        amount = sqrt( 10000 * _ocn + mAssets[_assetId].ndrops ** 2) - mAssets[_assetId].ndrops;\n      }\n\n      // 3. middle case: ndrops < 50 ocn but ndrops + _ocn > 50 ocn\n      if(mAssets[_assetId].ndrops / 10 + _ocn > 50 && mAssets[_assetId].ndrops < 500 ){\n        // handle flat portion\n        uint256 ret = _ocn - ( 50 - mAssets[_assetId].ndrops / 10 );\n        amount = 500 - mAssets[_assetId].ndrops;\n        // handle linear portion\n        amount += sqrt( 10000 * ret + 500 ** 2) - 500;\n      }\n      // 4. update balances\n      // increment total ndrops\n      mAssets[_assetId].ndrops += amount;\n      // lock ocean Tokens\n      mProviders[msg.sender].numOCN -= amount;\n      mProviders[msg.sender].allowanceOCN -= _ocn;\n      mAllowance -= _ocn;\n      // credit drops to actors\n      mAssets[_assetId].drops[msg.sender] += amount;\n\n      return amount;\n    }\n    */\n\n    function sellDrops(uint256 _assetId, uint256 _drops) public returns (uint256 _ocn) {\n      require(mProviders[msg.sender].provider != 0x0);\n\n      uint256 ocnAmount = calculateSaleReturn(totalSupply, poolBalance, reserveRatio, _drops);\n\n      // 4. update balances\n      totalSupply = totalSupply.sub(_drops);\n      poolBalance = poolBalance.sub(ocnAmount);\n      // decrement total ndrops\n      mAssets[_assetId].ndrops = mAssets[_assetId].ndrops.sub(_drops);\n      // unlock ocean Tokens\n      mProviders[msg.sender].numOCN += ocnAmount;\n      mProviders[msg.sender].allowanceOCN += ocnAmount;\n      mAllowance += ocnAmount;\n      // decrement drops balance of actors\n      mAssets[_assetId].drops[msg.sender] -= _drops;\n      return ocnAmount;\n    }\n\n    /*\n    // 2. bondingCurve function - sell Drops - call by any actors\n    function sellDrops(uint256 _assetId, uint256 _drops) public returns (uint256 _ocn) {\n      require(mProviders[msg.sender].provider != 0x0);\n\n      uint256 amount = 0;\n      //1. ndrops + _ocn < 50 OCN => simple flat line (1 Drops = 0.1 OCN)\n      if (mAssets[_assetId].ndrops <= 500 ){\n        require(_drops < 500);\n        amount = _drops / 10;\n      }\n      // 2.  ndrops - drops > 50 ocn => linear ratio Y= X / 5000\n      // total ocean exchange = area under linear line = ((ndrops - drops) / 5000 + ndrops / 5000 ) * drops / 2\n      if (mAssets[_assetId].ndrops - _drops >= 500 ){\n        amount = ( 2 * mAssets[_assetId].ndrops - _drops) * _drops / 10000;\n      }\n\n      // 3. middle case:\n      if(mAssets[_assetId].ndrops > 500 && mAssets[_assetId].ndrops - _drops < 500 ){\n        // handle flat portion\n        uint256 balance = mAssets[_assetId].ndrops - _drops;\n        uint256 ret = _drops - 500 + balance;\n        // flat portion\n        amount = ( 500 - balance) / 10;\n        // handle linear portion=> ((ndrops) / 5000 + 500 / 5000 ) * ret / 2\n        amount += ( 2 * mAssets[_assetId].ndrops - ret) * ret / 10000;\n      }\n      // 4. update balances\n      // decrement total ndrops\n      mAssets[_assetId].ndrops -= _drops;\n      // unlock ocean Tokens\n      mProviders[msg.sender].numOCN += amount;\n      mProviders[msg.sender].allowanceOCN += amount;\n      mAllowance += amount;\n      // decrement drops balance of actors\n      mAssets[_assetId].drops[msg.sender] -= _drops;\n      return amount;\n    }\n    */\n\n    ///////////////////////////////////////////////////////////////////\n    // Block Reward Distribution\n    ///////////////////////////////////////////////////////////////////\n    function calcRij(uint256 _assetId) public returns (uint256){\n      require(mProviders[msg.sender].provider != 0x0);\n\n      if ( rewardPool == 0){\n        return 0;\n      }\n\n      uint256 Sij;\n      uint256 Dj;\n      uint256 Ri;\n      // calculate value added by the provider => Rij\n      Sij = findMax( 0, floorLog2(mAssets[_assetId].drops[msg.sender]));\n      Dj = findMax(0, floorLog2(mAssets[_assetId].delivery[msg.sender]));\n      //Sij = mAssets[_assetId].drops[msg.sender];\n      //Dj = mAssets[_assetId].delivery[msg.sender];\n      // compute ratio of upload vs. download\n      if (mProviders[msg.sender].downloadBits != 0){\n        Ri = mProviders[msg.sender].uploadBits / mProviders[msg.sender].downloadBits;\n      } else {\n        Ri = 1;\n      }\n      Rij = Sij * Dj * Ri;\n      Rtotal += Rij;\n      Rdiff = findMax(Rtotal, 2 * Rdiff);\n      reward =  rewardPool * Rij / Rdiff;\n      // credit to provider\n      rewardPool -= reward;\n      mProviders[msg.sender].numOCN += reward;\n      //\n      ///////\n      return reward;\n    }\n\n    ///////////////////////////////////////////////////////////////////\n    // XOR random number generator\n    ///////////////////////////////////////////////////////////////////\n    function commitRandom(uint256 secret) public returns (bool success) {\n      random ^= secret;\n      return true;\n    }\n\n    function getRandom() public view returns (uint256) {\n      return random % range;\n    }\n\n\n\n    ///////////////////////////////////////////////////////////////////\n    // Utility Functions\n    ///////////////////////////////////////////////////////////////////\n    /*\n     *  Constants\n     */\n    // This is equal to 1 in our calculations\n    uint public constant ONE =  0x10000000000000000;\n    uint public constant LN2 = 0xb17217f7d1cf79ac;\n    uint public constant LOG2_E = 0x171547652b82fe177;\n\n    // 1. square root function\n    function sqrt(uint x) internal pure returns (uint y) {\n        if (x == 0) return 0;\n        else if (x <= 3) return 1;\n        uint z = (x + 1) / 2;\n        y = x;\n        while (z < y){\n            y = z;\n            z = (x / z + z) / 2;\n        }\n    }\n\n    // 2. logarithm Functions\n    /// @dev Returns base 2 logarithm value of given x\n    /// @param x x\n    /// @return logarithmic value\n/* define in power.sol\n    function floorLog2(uint256 x) internal pure returns (uint256 res) {\n        require( x >= 1);\n        if (x == 1) return 0;\n        int lo = -64;\n        int hi = 193;\n        // I use a shift here instead of / 2 because it floors instead of rounding towards 0\n        int mid = (hi + lo) >> 1;\n        while((lo + 1) < hi) {\n            if (mid < 0 && x << uint(-mid) < ONE || mid >= 0 && x >> uint(mid) < ONE)\n                hi = mid;\n            else\n                lo = mid;\n            mid = (hi + lo) >> 1;\n        }\n        res = uint256(lo);\n    }\n*/\n    /// @dev Returns maximum of an array\n    /// @param i1 Numbers to look through\n    /// @param i2 Numbers to look through\n    /// @return Maximum number\n    function findMax(uint256 i1, uint256 i2) internal pure returns (uint) {\n        if (i1 > i2) {\n            return i1;\n        } else {\n            return i2;\n        }\n    }\n\n\n}\n",
  "sourcePath": "/Users/fancy/Documents/Ocean Protocol/research/4-TCR/poc-tcr/1-simple-tcr-market/contracts/Market.sol",
  "compiler": {
    "name": "solc",
    "version": "0.4.21+commit.dfe3193c.Emscripten.clang"
  },
  "schemaVersion": "2.0.0",
  "updatedAt": "2018-05-31T18:46:04.064Z"
}