{
  "contractName": "Market",
  "abi": [
    {
      "constant": true,
      "inputs": [],
      "name": "LN2",
      "outputs": [
        {
          "name": "",
          "type": "uint256"
        }
      ],
      "payable": false,
      "stateMutability": "view",
      "type": "function"
    },
    {
      "constant": true,
      "inputs": [],
      "name": "sizeProviders",
      "outputs": [
        {
          "name": "",
          "type": "uint256"
        }
      ],
      "payable": false,
      "stateMutability": "view",
      "type": "function"
    },
    {
      "constant": true,
      "inputs": [],
      "name": "reserveRatio",
      "outputs": [
        {
          "name": "",
          "type": "uint32"
        }
      ],
      "payable": false,
      "stateMutability": "view",
      "type": "function"
    },
    {
      "constant": true,
      "inputs": [
        {
          "name": "",
          "type": "address"
        }
      ],
      "name": "mProviders",
      "outputs": [
        {
          "name": "provider",
          "type": "address"
        },
        {
          "name": "numOCN",
          "type": "uint256"
        },
        {
          "name": "allowanceOCN",
          "type": "uint256"
        },
        {
          "name": "uploadBits",
          "type": "uint256"
        },
        {
          "name": "downloadBits",
          "type": "uint256"
        }
      ],
      "payable": false,
      "stateMutability": "view",
      "type": "function"
    },
    {
      "constant": true,
      "inputs": [],
      "name": "totalSupply",
      "outputs": [
        {
          "name": "",
          "type": "uint256"
        }
      ],
      "payable": false,
      "stateMutability": "view",
      "type": "function"
    },
    {
      "constant": true,
      "inputs": [
        {
          "name": "",
          "type": "uint256"
        }
      ],
      "name": "mAssets",
      "outputs": [
        {
          "name": "owner",
          "type": "address"
        },
        {
          "name": "ndrops",
          "type": "uint256"
        },
        {
          "name": "bitSize",
          "type": "uint256"
        },
        {
          "name": "url",
          "type": "bytes32"
        },
        {
          "name": "token",
          "type": "bytes32"
        }
      ],
      "payable": false,
      "stateMutability": "view",
      "type": "function"
    },
    {
      "constant": true,
      "inputs": [],
      "name": "LOG2_E",
      "outputs": [
        {
          "name": "",
          "type": "uint256"
        }
      ],
      "payable": false,
      "stateMutability": "view",
      "type": "function"
    },
    {
      "constant": true,
      "inputs": [
        {
          "name": "_supply",
          "type": "uint256"
        },
        {
          "name": "_connectorBalance",
          "type": "uint256"
        },
        {
          "name": "_connectorWeight",
          "type": "uint32"
        },
        {
          "name": "_depositAmount",
          "type": "uint256"
        }
      ],
      "name": "calculatePurchaseReturn",
      "outputs": [
        {
          "name": "",
          "type": "uint256"
        }
      ],
      "payable": false,
      "stateMutability": "view",
      "type": "function"
    },
    {
      "constant": true,
      "inputs": [
        {
          "name": "_supply",
          "type": "uint256"
        },
        {
          "name": "_connectorBalance",
          "type": "uint256"
        },
        {
          "name": "_connectorWeight",
          "type": "uint32"
        },
        {
          "name": "_sellAmount",
          "type": "uint256"
        }
      ],
      "name": "calculateSaleReturn",
      "outputs": [
        {
          "name": "",
          "type": "uint256"
        }
      ],
      "payable": false,
      "stateMutability": "view",
      "type": "function"
    },
    {
      "constant": true,
      "inputs": [
        {
          "name": "",
          "type": "uint256"
        }
      ],
      "name": "listProviders",
      "outputs": [
        {
          "name": "",
          "type": "address"
        }
      ],
      "payable": false,
      "stateMutability": "view",
      "type": "function"
    },
    {
      "constant": true,
      "inputs": [],
      "name": "version",
      "outputs": [
        {
          "name": "",
          "type": "string"
        }
      ],
      "payable": false,
      "stateMutability": "view",
      "type": "function"
    },
    {
      "constant": true,
      "inputs": [],
      "name": "rewardPool",
      "outputs": [
        {
          "name": "",
          "type": "uint256"
        }
      ],
      "payable": false,
      "stateMutability": "view",
      "type": "function"
    },
    {
      "constant": true,
      "inputs": [],
      "name": "mAllowance",
      "outputs": [
        {
          "name": "",
          "type": "uint256"
        }
      ],
      "payable": false,
      "stateMutability": "view",
      "type": "function"
    },
    {
      "constant": true,
      "inputs": [],
      "name": "poolBalance",
      "outputs": [
        {
          "name": "",
          "type": "uint256"
        }
      ],
      "payable": false,
      "stateMutability": "view",
      "type": "function"
    },
    {
      "constant": true,
      "inputs": [],
      "name": "ONE",
      "outputs": [
        {
          "name": "",
          "type": "uint256"
        }
      ],
      "payable": false,
      "stateMutability": "view",
      "type": "function"
    },
    {
      "constant": true,
      "inputs": [],
      "name": "mToken",
      "outputs": [
        {
          "name": "",
          "type": "address"
        }
      ],
      "payable": false,
      "stateMutability": "view",
      "type": "function"
    },
    {
      "constant": true,
      "inputs": [],
      "name": "tcr",
      "outputs": [
        {
          "name": "",
          "type": "address"
        }
      ],
      "payable": false,
      "stateMutability": "view",
      "type": "function"
    },
    {
      "constant": true,
      "inputs": [],
      "name": "tokensToMint",
      "outputs": [
        {
          "name": "",
          "type": "uint256"
        }
      ],
      "payable": false,
      "stateMutability": "view",
      "type": "function"
    },
    {
      "constant": true,
      "inputs": [],
      "name": "mOwner",
      "outputs": [
        {
          "name": "",
          "type": "address"
        }
      ],
      "payable": false,
      "stateMutability": "view",
      "type": "function"
    },
    {
      "constant": false,
      "inputs": [
        {
          "name": "_newOwner",
          "type": "address"
        }
      ],
      "name": "transferOwnership",
      "outputs": [],
      "payable": false,
      "stateMutability": "nonpayable",
      "type": "function"
    },
    {
      "constant": true,
      "inputs": [],
      "name": "winProvider",
      "outputs": [
        {
          "name": "",
          "type": "uint256"
        }
      ],
      "payable": false,
      "stateMutability": "view",
      "type": "function"
    },
    {
      "inputs": [
        {
          "name": "_tokenAddress",
          "type": "address"
        },
        {
          "name": "_tcrAddress",
          "type": "address"
        }
      ],
      "payable": false,
      "stateMutability": "nonpayable",
      "type": "constructor"
    },
    {
      "anonymous": false,
      "inputs": [
        {
          "indexed": true,
          "name": "previousOwner",
          "type": "address"
        },
        {
          "indexed": true,
          "name": "newOwner",
          "type": "address"
        }
      ],
      "name": "OwnershipTransferred",
      "type": "event"
    },
    {
      "constant": true,
      "inputs": [
        {
          "name": "listing",
          "type": "bytes32"
        }
      ],
      "name": "checkListingStatus",
      "outputs": [
        {
          "name": "",
          "type": "bool"
        }
      ],
      "payable": false,
      "stateMutability": "view",
      "type": "function"
    },
    {
      "constant": true,
      "inputs": [
        {
          "name": "assetId",
          "type": "uint256"
        }
      ],
      "name": "dropsBalance",
      "outputs": [
        {
          "name": "",
          "type": "uint256"
        }
      ],
      "payable": false,
      "stateMutability": "view",
      "type": "function"
    },
    {
      "constant": true,
      "inputs": [],
      "name": "rnd",
      "outputs": [
        {
          "name": "",
          "type": "uint256"
        }
      ],
      "payable": false,
      "stateMutability": "view",
      "type": "function"
    },
    {
      "constant": true,
      "inputs": [],
      "name": "tokenBalance",
      "outputs": [
        {
          "name": "",
          "type": "uint256"
        }
      ],
      "payable": false,
      "stateMutability": "view",
      "type": "function"
    },
    {
      "constant": false,
      "inputs": [
        {
          "name": "assetId",
          "type": "uint256"
        }
      ],
      "name": "register",
      "outputs": [
        {
          "name": "success",
          "type": "bool"
        }
      ],
      "payable": false,
      "stateMutability": "nonpayable",
      "type": "function"
    },
    {
      "constant": false,
      "inputs": [
        {
          "name": "assetId",
          "type": "uint256"
        },
        {
          "name": "_url",
          "type": "bytes32"
        },
        {
          "name": "_token",
          "type": "bytes32"
        }
      ],
      "name": "publish",
      "outputs": [
        {
          "name": "success",
          "type": "bool"
        }
      ],
      "payable": false,
      "stateMutability": "nonpayable",
      "type": "function"
    },
    {
      "constant": false,
      "inputs": [
        {
          "name": "assetId",
          "type": "uint256"
        }
      ],
      "name": "purchase",
      "outputs": [
        {
          "name": "url",
          "type": "bytes32"
        },
        {
          "name": "token",
          "type": "bytes32"
        }
      ],
      "payable": false,
      "stateMutability": "nonpayable",
      "type": "function"
    },
    {
      "constant": true,
      "inputs": [
        {
          "name": "",
          "type": "uint256"
        }
      ],
      "name": "listAssets",
      "outputs": [
        {
          "name": "",
          "type": "uint256"
        }
      ],
      "payable": false,
      "stateMutability": "view",
      "type": "function"
    },
    {
      "constant": true,
      "inputs": [],
      "name": "listAssets",
      "outputs": [
        {
          "name": "",
          "type": "uint256[50]"
        }
      ],
      "payable": false,
      "stateMutability": "view",
      "type": "function"
    },
    {
      "constant": false,
      "inputs": [
        {
          "name": "amount",
          "type": "uint256"
        }
      ],
      "name": "requestTokens",
      "outputs": [
        {
          "name": "",
          "type": "uint256"
        }
      ],
      "payable": false,
      "stateMutability": "nonpayable",
      "type": "function"
    },
    {
      "constant": false,
      "inputs": [],
      "name": "withdraw",
      "outputs": [
        {
          "name": "",
          "type": "bool"
        }
      ],
      "payable": false,
      "stateMutability": "nonpayable",
      "type": "function"
    },
    {
      "constant": false,
      "inputs": [],
      "name": "mintToken",
      "outputs": [
        {
          "name": "balance",
          "type": "uint256"
        }
      ],
      "payable": false,
      "stateMutability": "nonpayable",
      "type": "function"
    },
    {
      "constant": false,
      "inputs": [
        {
          "name": "_assetId",
          "type": "uint256"
        },
        {
          "name": "_ocn",
          "type": "uint256"
        }
      ],
      "name": "buyDrops",
      "outputs": [
        {
          "name": "_drops",
          "type": "uint256"
        }
      ],
      "payable": false,
      "stateMutability": "nonpayable",
      "type": "function"
    },
    {
      "constant": false,
      "inputs": [
        {
          "name": "_assetId",
          "type": "uint256"
        },
        {
          "name": "_drops",
          "type": "uint256"
        }
      ],
      "name": "sellDrops",
      "outputs": [
        {
          "name": "_ocn",
          "type": "uint256"
        }
      ],
      "payable": false,
      "stateMutability": "nonpayable",
      "type": "function"
    },
    {
      "constant": true,
      "inputs": [
        {
          "name": "limit",
          "type": "uint256"
        }
      ],
      "name": "rng",
      "outputs": [
        {
          "name": "",
          "type": "uint256"
        }
      ],
      "payable": false,
      "stateMutability": "view",
      "type": "function"
    }
  ],
  "bytecode": "0x60806040526040805190810160405280600381526020017f302e330000000000000000000000000000000000000000000000000000000000815250600090805190602001906200005192919062001312565b506040805190810160405280600381526020017f302e330000000000000000000000000000000000000000000000000000000000815250608190805190602001906200009f92919062001312565b50600060b655600060ea55600060eb55600a60ef55600160f0556207a12060f160006101000a81548163ffffffff021916908363ffffffff160217905550600060f255348015620000ef57600080fd5b50604051604080620042758339810180604052810190808051906020019092919080519060200190929190505050701c35fedd14ffffffffffffffffffffffff600160206080811015156200014057fe5b0181905550701b0ce43b323fffffffffffffffffffffff600160216080811015156200016857fe5b01819055507019f0028ec1ffffffffffffffffffffffff600160226080811015156200019057fe5b01819055507018ded91f0e7fffffffffffffffffffffff60016023608081101515620001b857fe5b01819055507017d8ec7f0417ffffffffffffffffffffff60016024608081101515620001e057fe5b01819055507016ddc6556cdbffffffffffffffffffffff600160256080811015156200020857fe5b01819055507015ecf52776a1ffffffffffffffffffffff600160266080811015156200023057fe5b01819055507015060c256cb2ffffffffffffffffffffff600160276080811015156200025857fe5b0181905550701428a2f98d72ffffffffffffffffffffff600160286080811015156200028057fe5b01819055507013545598e5c23fffffffffffffffffffff60016029608081101515620002a857fe5b0181905550701288c4161ce1dfffffffffffffffffffff6001602a608081101515620002d057fe5b01819055507011c592761c666fffffffffffffffffffff6001602b608081101515620002f857fe5b018190555070110a688680a757ffffffffffffffffffff6001602c6080811015156200032057fe5b0181905550701056f1b5bedf77ffffffffffffffffffff6001602d6080811015156200034857fe5b0181905550700faadceceeff8bffffffffffffffffffff6001602e6080811015156200037057fe5b0181905550700f05dc6b27edadffffffffffffffffffff6001602f6080811015156200039857fe5b0181905550700e67a5a25da4107fffffffffffffffffff60016030608081101515620003c057fe5b0181905550700dcff115b14eedffffffffffffffffffff60016031608081101515620003e857fe5b0181905550700d3e7a392431239fffffffffffffffffff600160326080811015156200041057fe5b0181905550700cb2ff529eb71e4fffffffffffffffffff600160336080811015156200043857fe5b0181905550700c2d415c3db974afffffffffffffffffff600160346080811015156200046057fe5b0181905550700bad03e7d883f69bffffffffffffffffff600160356080811015156200048857fe5b0181905550700b320d03b2c343d5ffffffffffffffffff60016036608081101515620004b057fe5b0181905550700abc25204e02828dffffffffffffffffff60016037608081101515620004d857fe5b0181905550700a4b16f74ee4bb207fffffffffffffffff600160386080811015156200050057fe5b01819055507009deaf736ac1f569ffffffffffffffffff600160396080811015156200052857fe5b0181905550700976bd9952c7aa957fffffffffffffffff6001603a6080811015156200055057fe5b01819055507009131271922eaa606fffffffffffffffff6001603b6080811015156200057857fe5b01819055507008b380f3558668c46fffffffffffffffff6001603c608081101515620005a057fe5b0181905550700857ddf0117efa215bffffffffffffffff6001603d608081101515620005c857fe5b01819055507007ffffffffffffffffffffffffffffffff6001603e608081101515620005f057fe5b01819055507007abbf6f6abb9d087fffffffffffffffff6001603f6080811015156200061857fe5b018190555070075af62cbac95f7dfa7fffffffffffffff600160406080811015156200064057fe5b018190555070070d7fb7452e187ac13fffffffffffffff600160416080811015156200066857fe5b01819055507006c3390ecc8af379295fffffffffffffff600160426080811015156200069057fe5b018190555070067c00a3b07ffc01fd6fffffffffffffff60016043608081101515620006b857fe5b0181905550700637b647c39cbb9d3d27ffffffffffffff60016044608081101515620006e057fe5b01819055507005f63b1fc104dbd39587ffffffffffffff600160456080811015156200070857fe5b01819055507005b771955b36e12f7235ffffffffffffff600160466080811015156200073057fe5b018190555070057b3d49dda84556d6f6ffffffffffffff600160476080811015156200075857fe5b018190555070054183095b2c8ececf30ffffffffffffff600160486080811015156200078057fe5b018190555070050a28be635ca2b888f77fffffffffffff60016049608081101515620007a857fe5b01819055507004d5156639708c9db33c3fffffffffffff6001604a608081101515620007d057fe5b01819055507004a23105873875bd52dfdfffffffffffff6001604b608081101515620007f857fe5b0181905550700471649d87199aa990756fffffffffffff6001604c6080811015156200082057fe5b01819055507004429a21a029d4c1457cfbffffffffffff6001604d6080811015156200084857fe5b0181905550700415bc6d6fb7dd71af2cb3ffffffffffff6001604e6080811015156200087057fe5b01819055507003eab73b3bbfe282243ce1ffffffffffff6001604f6080811015156200089857fe5b01819055507003c1771ac9fb6b4c18e229ffffffffffff60016050608081101515620008c057fe5b0181905550700399e96897690418f785257fffffffffff60016051608081101515620008e857fe5b0181905550700373fc456c53bb779bf0ea9fffffffffff600160526080811015156200091057fe5b018190555070034f9e8e490c48e67e6ab8bfffffffffff600160536080811015156200093857fe5b018190555070032cbfd4a7adc790560b3337ffffffffff600160546080811015156200096057fe5b018190555070030b50570f6e5d2acca94613ffffffffff600160556080811015156200098857fe5b01819055507002eb40f9f620fda6b56c2861ffffffffff60016056608081101515620009b057fe5b01819055507002cc8340ecb0d0f520a6af58ffffffffff60016057608081101515620009d857fe5b01819055507002af09481380a0a35cf1ba02ffffffffff6001605860808110151562000a0057fe5b0181905550700292c5bdd3b92ec810287b1b3fffffffff6001605960808110151562000a2857fe5b0181905550700277abdcdab07d5a77ac6d6b9fffffffff6001605a60808110151562000a5057fe5b018190555070025daf6654b1eaa55fd64df5efffffffff6001605b60808110151562000a7857fe5b0181905550700244c49c648baa98192dce88b7ffffffff6001605c60808110151562000aa057fe5b018190555070022ce03cd5619a311b2471268bffffffff6001605d60808110151562000ac857fe5b0181905550700215f77c045fbe885654a44a0fffffffff6001605e60808110151562000af057fe5b01819055507001ffffffffffffffffffffffffffffffff6001605f60808110151562000b1857fe5b01819055507001eaefdbdaaee7421fc4d3ede5ffffffff6001606060808110151562000b4057fe5b01819055507001d6bd8b2eb257df7e8ca57b09bfffffff6001606160808110151562000b6857fe5b01819055507001c35fedd14b861eb0443f7f133fffffff6001606260808110151562000b9057fe5b01819055507001b0ce43b322bcde4a56e8ada5afffffff6001606360808110151562000bb857fe5b018190555070019f0028ec1fff007f5a195a39dfffffff6001606460808110151562000be057fe5b018190555070018ded91f0e72ee74f49b15ba527ffffff6001606560808110151562000c0857fe5b018190555070017d8ec7f04136f4e5615fd41a63ffffff6001606660808110151562000c3057fe5b018190555070016ddc6556cdb84bdc8d12d22e6fffffff6001606760808110151562000c5857fe5b018190555070015ecf52776a1155b5bd8395814f7fffff6001606860808110151562000c8057fe5b018190555070015060c256cb23b3b3cc3754cf40ffffff6001606960808110151562000ca857fe5b01819055507001428a2f98d728ae223ddab715be3fffff6001606a60808110151562000cd057fe5b018190555070013545598e5c23276ccf0ede68034fffff6001606b60808110151562000cf857fe5b01819055507001288c4161ce1d6f54b7f61081194fffff6001606c60808110151562000d2057fe5b018190555070011c592761c666aa641d5a01a40f17ffff6001606d60808110151562000d4857fe5b0181905550700110a688680a7530515f3e6e6cfdcdffff6001606e60808110151562000d7057fe5b01819055507001056f1b5bedf75c6bcb2ce8aed428ffff6001606f60808110151562000d9857fe5b01819055506ffaadceceeff8a0890f3875f008277fff6001607060808110151562000dbf57fe5b01819055506ff05dc6b27edad306388a600f6ba0bfff6001607160808110151562000de657fe5b01819055506fe67a5a25da41063de1495d5b18cdbfff6001607260808110151562000e0d57fe5b01819055506fdcff115b14eedde6fc3aa5353f2e4fff6001607360808110151562000e3457fe5b01819055506fd3e7a3924312399f9aae2e0f868f8fff6001607460808110151562000e5b57fe5b01819055506fcb2ff529eb71e41582cccd5a1ee26fff6001607560808110151562000e8257fe5b01819055506fc2d415c3db974ab32a51840c0b67edff6001607660808110151562000ea957fe5b01819055506fbad03e7d883f69ad5b0a186184e06bff6001607760808110151562000ed057fe5b01819055506fb320d03b2c343d4829abd6075f0cc5ff6001607860808110151562000ef757fe5b01819055506fabc25204e02828d73c6e80bcdb1a95bf6001607960808110151562000f1e57fe5b01819055506fa4b16f74ee4bb2040a1ec6c15fbbf2df6001607a60808110151562000f4557fe5b01819055506f9deaf736ac1f569deb1b5ae3f36c130f6001607b60808110151562000f6c57fe5b01819055506f976bd9952c7aa957f5937d790ef650376001607c60808110151562000f9357fe5b01819055506f9131271922eaa6064b73a22d0bd4f2bf6001607d60808110151562000fba57fe5b01819055506f8b380f3558668c46c91c49a2f8e967b96001607e60808110151562000fe157fe5b01819055506f857ddf0117efa215952912839f6473e66001607f6080811015156200100857fe5b018190555033608260006101000a81548173ffffffffffffffffffffffffffffffffffffffff021916908373ffffffffffffffffffffffffffffffffffffffff160217905550600073ffffffffffffffffffffffffffffffffffffffff168273ffffffffffffffffffffffffffffffffffffffff16141515156200108b57600080fd5b8160ec60006101000a81548173ffffffffffffffffffffffffffffffffffffffff021916908373ffffffffffffffffffffffffffffffffffffffff1602179055508060f360006101000a81548173ffffffffffffffffffffffffffffffffffffffff021916908373ffffffffffffffffffffffffffffffffffffffff16021790555060ec60009054906101000a900473ffffffffffffffffffffffffffffffffffffffff1673ffffffffffffffffffffffffffffffffffffffff1663718da7ee306040518263ffffffff167c0100000000000000000000000000000000000000000000000000000000028152600401808273ffffffffffffffffffffffffffffffffffffffff1673ffffffffffffffffffffffffffffffffffffffff168152602001915050602060405180830381600087803b158015620011cb57600080fd5b505af1158015620011e0573d6000803e3d6000fd5b505050506040513d6020811015620011f757600080fd5b81019080805190602001909291905050505060ec60009054906101000a900473ffffffffffffffffffffffffffffffffffffffff1673ffffffffffffffffffffffffffffffffffffffff166370a08231306040518263ffffffff167c0100000000000000000000000000000000000000000000000000000000028152600401808273ffffffffffffffffffffffffffffffffffffffff1673ffffffffffffffffffffffffffffffffffffffff168152602001915050602060405180830381600087803b158015620012c757600080fd5b505af1158015620012dc573d6000803e3d6000fd5b505050506040513d6020811015620012f357600080fd5b810190808051906020019092919050505060ed819055505050620013c1565b828054600181600116156101000203166002900490600052602060002090601f016020900481019282601f106200135557805160ff191683800117855562001386565b8280016001018555821562001386579182015b828111156200138557825182559160200191906001019062001368565b5b50905062001395919062001399565b5090565b620013be91905b80821115620013ba576000816000905550600101620013a0565b5090565b90565b612ea480620013d16000396000f3006080604052600436106101c2576000357c0100000000000000000000000000000000000000000000000000000000900463ffffffff16806302780677146101c75780630abbf0bc146101f25780630c7d5cd81461021d5780631642cfbb1461025457806318160ddd146102f35780632004ffd91461031e578063242d9b121461034957806324902e24146103e257806329a00e7c1461040d5780633ccfd60b1461047257806349f9b0f7146104a15780634d841e1f1461050657806353f836db1461057357806354fd4d50146105b457806358bd19951461064457806366666aa91461068f57806370dbe710146106ba57806376559e2d1461071b57806396365d44146107465780639e1a4d1914610771578063b8ef5a381461079c578063c2ee3a08146107dd578063c3b6f93914610808578063c438aeb51461085f578063c6beb884146108b6578063c958585314610901578063cbafee8a14610942578063dcda4bf31461096d578063eadeb9a3146109c4578063eef9c27c14610a17578063efef39a114610a58578063f207564e14610ab0578063f2fde38b14610af5578063f7216f6b14610b38578063fae9297214610b81578063fec1439c14610bac575b600080fd5b3480156101d357600080fd5b506101dc610bd7565b6040518082815260200191505060405180910390f35b3480156101fe57600080fd5b50610207610be3565b6040518082815260200191505060405180910390f35b34801561022957600080fd5b50610232610be9565b604051808263ffffffff1663ffffffff16815260200191505060405180910390f35b34801561026057600080fd5b50610295600480360381019080803573ffffffffffffffffffffffffffffffffffffffff169060200190929190505050610bff565b604051808673ffffffffffffffffffffffffffffffffffffffff1673ffffffffffffffffffffffffffffffffffffffff1681526020018581526020018481526020018381526020018281526020019550505050505060405180910390f35b3480156102ff57600080fd5b50610308610c55565b6040518082815260200191505060405180910390f35b34801561032a57600080fd5b50610333610c5b565b6040518082815260200191505060405180910390f35b34801561035557600080fd5b5061037460048036038101908080359060200190929190505050610f4c565b604051808673ffffffffffffffffffffffffffffffffffffffff1673ffffffffffffffffffffffffffffffffffffffff168152602001858152602001848152602001836000191660001916815260200182600019166000191681526020019550505050505060405180910390f35b3480156103ee57600080fd5b506103f7610fa2565b6040518082815260200191505060405180910390f35b34801561041957600080fd5b5061045c6004803603810190808035906020019092919080359060200190929190803563ffffffff16906020019092919080359060200190929190505050610faf565b6040518082815260200191505060405180910390f35b34801561047e57600080fd5b506104876110b0565b604051808215151515815260200191505060405180910390f35b3480156104ad57600080fd5b506104f06004803603810190808035906020019092919080359060200190929190803563ffffffff169060200190929190803590602001909291905050506112b3565b6040518082815260200191505060405180910390f35b34801561051257600080fd5b50610531600480360381019080803590602001909291905050506113e7565b604051808273ffffffffffffffffffffffffffffffffffffffff1673ffffffffffffffffffffffffffffffffffffffff16815260200191505060405180910390f35b34801561057f57600080fd5b5061059e6004803603810190808035906020019092919050505061141c565b6040518082815260200191505060405180910390f35b3480156105c057600080fd5b506105c9611452565b6040518080602001828103825283818151815260200191508051906020019080838360005b838110156106095780820151818401526020810190506105ee565b50505050905090810190601f1680156106365780820380516001836020036101000a031916815260200191505b509250505060405180910390f35b34801561065057600080fd5b5061067960048036038101908080359060200190929190803590602001909291905050506114f0565b6040518082815260200191505060405180910390f35b34801561069b57600080fd5b506106a4611733565b6040518082815260200191505060405180910390f35b3480156106c657600080fd5b506107016004803603810190808035906020019092919080356000191690602001909291908035600019169060200190929190505050611739565b604051808215151515815260200191505060405180910390f35b34801561072757600080fd5b5061073061184b565b6040518082815260200191505060405180910390f35b34801561075257600080fd5b5061075b611851565b6040518082815260200191505060405180910390f35b34801561077d57600080fd5b50610786611857565b6040518082815260200191505060405180910390f35b3480156107a857600080fd5b506107c760048036038101908080359060200190929190505050611928565b6040518082815260200191505060405180910390f35b3480156107e957600080fd5b506107f26119aa565b6040518082815260200191505060405180910390f35b34801561081457600080fd5b5061081d6119b7565b604051808273ffffffffffffffffffffffffffffffffffffffff1673ffffffffffffffffffffffffffffffffffffffff16815260200191505060405180910390f35b34801561086b57600080fd5b506108746119dd565b604051808273ffffffffffffffffffffffffffffffffffffffff1673ffffffffffffffffffffffffffffffffffffffff16815260200191505060405180910390f35b3480156108c257600080fd5b506108eb6004803603810190808035906020019092919080359060200190929190505050611a03565b6040518082815260200191505060405180910390f35b34801561090d57600080fd5b5061092c60048036038101908080359060200190929190505050611dac565b6040518082815260200191505060405180910390f35b34801561094e57600080fd5b50610957611dc6565b6040518082815260200191505060405180910390f35b34801561097957600080fd5b50610982611dcc565b604051808273ffffffffffffffffffffffffffffffffffffffff1673ffffffffffffffffffffffffffffffffffffffff16815260200191505060405180910390f35b3480156109d057600080fd5b506109d9611df2565b6040518082603260200280838360005b83811015610a045780820151818401526020810190506109e9565b5050505090500191505060405180910390f35b348015610a2357600080fd5b50610a4260048036038101908080359060200190929190505050611e3d565b6040518082815260200191505060405180910390f35b348015610a6457600080fd5b50610a8360048036038101908080359060200190929190505050611fa7565b60405180836000191660001916815260200182600019166000191681526020019250505060405180910390f35b348015610abc57600080fd5b50610adb60048036038101908080359060200190929190505050612246565b604051808215151515815260200191505060405180910390f35b348015610b0157600080fd5b50610b36600480360381019080803573ffffffffffffffffffffffffffffffffffffffff1690602001909291905050506124cc565b005b348015610b4457600080fd5b50610b6760048036038101908080356000191690602001909291905050506125a8565b604051808215151515815260200191505060405180910390f35b348015610b8d57600080fd5b50610b96612685565b6040518082815260200191505060405180910390f35b348015610bb857600080fd5b50610bc161268b565b6040518082815260200191505060405180910390f35b67b17217f7d1cf79ac81565b60ea5481565b60f160009054906101000a900463ffffffff1681565b60b76020528060005260406000206000915090508060000160009054906101000a900473ffffffffffffffffffffffffffffffffffffffff16908060010154908060020154908060030154908060040154905085565b60ef5481565b600080600060ec60009054906101000a900473ffffffffffffffffffffffffffffffffffffffff1673ffffffffffffffffffffffffffffffffffffffff166370a08231306040518263ffffffff167c0100000000000000000000000000000000000000000000000000000000028152600401808273ffffffffffffffffffffffffffffffffffffffff1673ffffffffffffffffffffffffffffffffffffffff168152602001915050602060405180830381600087803b158015610d1d57600080fd5b505af1158015610d31573d6000803e3d6000fd5b505050506040513d6020811015610d4757600080fd5b8101908080519060200190929190505050915060ec60009054906101000a900473ffffffffffffffffffffffffffffffffffffffff1673ffffffffffffffffffffffffffffffffffffffff1663c89aee836040518163ffffffff167c0100000000000000000000000000000000000000000000000000000000028152600401602060405180830381600087803b158015610de057600080fd5b505af1158015610df4573d6000803e3d6000fd5b505050506040513d6020811015610e0a57600080fd5b81019080805190602001909291905050501515610e2657600080fd5b60ec60009054906101000a900473ffffffffffffffffffffffffffffffffffffffff1673ffffffffffffffffffffffffffffffffffffffff166370a08231306040518263ffffffff167c0100000000000000000000000000000000000000000000000000000000028152600401808273ffffffffffffffffffffffffffffffffffffffff1673ffffffffffffffffffffffffffffffffffffffff168152602001915050602060405180830381600087803b158015610ee357600080fd5b505af1158015610ef7573d6000803e3d6000fd5b505050506040513d6020811015610f0d57600080fd5b8101908080519060200190929190505050905081810360ee6000828254019250508190555081810360ed60008282540192505081905550809250505090565b60836020528060005260406000206000915090508060000160009054906101000a900473ffffffffffffffffffffffffffffffffffffffff16908060010154908060020154908060030154908060040154905085565b680171547652b82fe17781565b60008060008060008089118015610fc65750600088115b8015610fd8575060008763ffffffff16115b8015610ff35750620f424063ffffffff168763ffffffff1611155b1515610ffe57600080fd5b600086141561101057600094506110a4565b620f424063ffffffff168763ffffffff1614156110535761104c8861103e888c61269590919063ffffffff16565b6126c890919063ffffffff16565b94506110a4565b61106688876126e390919063ffffffff16565b9150611077828989620f4240612701565b80945081955050508260ff16611096858b61269590919063ffffffff16565b9060020a9004905088810394505b50505050949350505050565b60008060b760003373ffffffffffffffffffffffffffffffffffffffff1673ffffffffffffffffffffffffffffffffffffffff168152602001908152602001600020600101549050600060b760003373ffffffffffffffffffffffffffffffffffffffff1673ffffffffffffffffffffffffffffffffffffffff168152602001908152602001600020600101819055508060ed600082825403925050819055508060b760003373ffffffffffffffffffffffffffffffffffffffff1673ffffffffffffffffffffffffffffffffffffffff1681526020019081526020016000206002016000828254039250508190555060ec60009054906101000a900473ffffffffffffffffffffffffffffffffffffffff1673ffffffffffffffffffffffffffffffffffffffff1663a9059cbb33836040518363ffffffff167c0100000000000000000000000000000000000000000000000000000000028152600401808373ffffffffffffffffffffffffffffffffffffffff1673ffffffffffffffffffffffffffffffffffffffff16815260200182815260200192505050602060405180830381600087803b15801561126557600080fd5b505af1158015611279573d6000803e3d6000fd5b505050506040513d602081101561128f57600080fd5b810190808051906020019092919050505015156112ab57600080fd5b600191505090565b60008060008060008060008a1180156112cc5750600089115b80156112de575060008863ffffffff16115b80156112f95750620f424063ffffffff168863ffffffff1611155b80156113055750898711155b151561131057600080fd5b600087141561132257600095506113da565b89871415611332578895506113da565b620f424063ffffffff168863ffffffff1614156113755761136e8a611360898c61269590919063ffffffff16565b6126c890919063ffffffff16565b95506113da565b868a0392506113898a84620f42408b612701565b80955081965050506113a4858a61269590919063ffffffff16565b91508360ff16899060020a0290506113d7856113c9838561275e90919063ffffffff16565b6126c890919063ffffffff16565b95505b5050505050949350505050565b60b8816032811015156113f657fe5b016000915054906101000a900473ffffffffffffffffffffffffffffffffffffffff1681565b6000814244604051808381526020018281526020019250505060405180910390206001900481151561144a57fe5b069050919050565b60818054600181600116156101000203166002900480601f0160208091040260200160405190810160405280929190818152602001828054600181600116156101000203166002900480156114e85780601f106114bd576101008083540402835291602001916114e8565b820191906000526020600020905b8154815290600101906020018083116114cb57829003601f168201915b505050505081565b600080600060b760003373ffffffffffffffffffffffffffffffffffffffff1673ffffffffffffffffffffffffffffffffffffffff16815260200190815260200160002060000160009054906101000a900473ffffffffffffffffffffffffffffffffffffffff1673ffffffffffffffffffffffffffffffffffffffff161415151561157b57600080fd5b61159d60ef5460f05460f160009054906101000a900463ffffffff16866112b3565b90506115b48360ef5461275e90919063ffffffff16565b60ef819055506115cf8160f05461275e90919063ffffffff16565b60f0819055506115fe83608360008781526020019081526020016000206001015461275e90919063ffffffff16565b60836000868152602001908152602001600020600101819055508060b760003373ffffffffffffffffffffffffffffffffffffffff1673ffffffffffffffffffffffffffffffffffffffff168152602001908152602001600020600101600082825401925050819055508060b760003373ffffffffffffffffffffffffffffffffffffffff1673ffffffffffffffffffffffffffffffffffffffff168152602001908152602001600020600201600082825401925050819055508060ed60008282540192505081905550826083600086815260200190815260200160002060050160003373ffffffffffffffffffffffffffffffffffffffff1673ffffffffffffffffffffffffffffffffffffffff168152602001908152602001600020600082825403925050819055508091505092915050565b60ee5481565b6000806083600086815260200190815260200160002060000160009054906101000a900473ffffffffffffffffffffffffffffffffffffffff1673ffffffffffffffffffffffffffffffffffffffff161415151561179657600080fd5b6083600085815260200190815260200160002060000160009054906101000a900473ffffffffffffffffffffffffffffffffffffffff1673ffffffffffffffffffffffffffffffffffffffff163373ffffffffffffffffffffffffffffffffffffffff1614151561180657600080fd5b82608360008681526020019081526020016000206003018160001916905550816083600086815260200190815260200160002060040181600019169055509392505050565b60ed5481565b60f05481565b60008060b760003373ffffffffffffffffffffffffffffffffffffffff1673ffffffffffffffffffffffffffffffffffffffff16815260200190815260200160002060000160009054906101000a900473ffffffffffffffffffffffffffffffffffffffff1673ffffffffffffffffffffffffffffffffffffffff16141515156118e057600080fd5b60b760003373ffffffffffffffffffffffffffffffffffffffff1673ffffffffffffffffffffffffffffffffffffffff16815260200190815260200160002060010154905090565b6000803373ffffffffffffffffffffffffffffffffffffffff161415151561194f57600080fd5b6083600083815260200190815260200160002060050160003373ffffffffffffffffffffffffffffffffffffffff1673ffffffffffffffffffffffffffffffffffffffff168152602001908152602001600020549050919050565b6801000000000000000081565b60ec60009054906101000a900473ffffffffffffffffffffffffffffffffffffffff1681565b60f360009054906101000a900473ffffffffffffffffffffffffffffffffffffffff1681565b60008160b760003373ffffffffffffffffffffffffffffffffffffffff1673ffffffffffffffffffffffffffffffffffffffff168152602001908152602001600020600101600082825401925050819055508160b760003373ffffffffffffffffffffffffffffffffffffffff1673ffffffffffffffffffffffffffffffffffffffff168152602001908152602001600020600201600082825401925050819055508160ed6000828254019250508190555060ec60009054906101000a900473ffffffffffffffffffffffffffffffffffffffff1673ffffffffffffffffffffffffffffffffffffffff166323b872dd3330856040518463ffffffff167c0100000000000000000000000000000000000000000000000000000000028152600401808473ffffffffffffffffffffffffffffffffffffffff1673ffffffffffffffffffffffffffffffffffffffff1681526020018373ffffffffffffffffffffffffffffffffffffffff1673ffffffffffffffffffffffffffffffffffffffff1681526020018281526020019350505050602060405180830381600087803b158015611bae57600080fd5b505af1158015611bc2573d6000803e3d6000fd5b505050506040513d6020811015611bd857600080fd5b81019080805190602001909291905050501515611bf457600080fd5b611c1660ef5460f05460f160009054906101000a900463ffffffff1685610faf565b60f281905550611c4760f25460836000868152602001908152602001600020600101546126e390919063ffffffff16565b608360008581526020019081526020016000206001018190555060f25460ef60008282540192505081905550611c888260f0546126e390919063ffffffff16565b60f0819055508160b760003373ffffffffffffffffffffffffffffffffffffffff1673ffffffffffffffffffffffffffffffffffffffff168152602001908152602001600020600101600082825403925050819055508160b760003373ffffffffffffffffffffffffffffffffffffffff1673ffffffffffffffffffffffffffffffffffffffff168152602001908152602001600020600201600082825403925050819055508160ed6000828254039250508190555060f2546083600085815260200190815260200160002060050160003373ffffffffffffffffffffffffffffffffffffffff1673ffffffffffffffffffffffffffffffffffffffff1681526020019081526020016000206000828254019250508190555060f254905092915050565b608481603281101515611dbb57fe5b016000915090505481565b60f25481565b608260009054906101000a900473ffffffffffffffffffffffffffffffffffffffff1681565b611dfa612e54565b6084603280602002604051908101604052809291908260328015611e33576020028201915b815481526020019060010190808311611e1f575b5050505050905090565b60008060003373ffffffffffffffffffffffffffffffffffffffff1614151515611e6657600080fd5b600090508260ed54101515611e7d57829050611e83565b60ed5490505b8060ed6000828254039250508190555060ec60009054906101000a900473ffffffffffffffffffffffffffffffffffffffff1673ffffffffffffffffffffffffffffffffffffffff1663a9059cbb33836040518363ffffffff167c0100000000000000000000000000000000000000000000000000000000028152600401808373ffffffffffffffffffffffffffffffffffffffff1673ffffffffffffffffffffffffffffffffffffffff16815260200182815260200192505050602060405180830381600087803b158015611f5857600080fd5b505af1158015611f6c573d6000803e3d6000fd5b505050506040513d6020811015611f8257600080fd5b81019080805190602001909291905050501515611f9e57600080fd5b80915050919050565b6000806000806083600086815260200190815260200160002060000160009054906101000a900473ffffffffffffffffffffffffffffffffffffffff1673ffffffffffffffffffffffffffffffffffffffff161415151561200757600080fd5b603260ea541015612143576083600085815260200190815260200160002060000160009054906101000a900473ffffffffffffffffffffffffffffffffffffffff1660b860ea5460328110151561205a57fe5b0160006101000a81548173ffffffffffffffffffffffffffffffffffffffff021916908373ffffffffffffffffffffffffffffffffffffffff160217905550600160ea6000828254019250508190555060016083600086815260200190815260200160002060060160006083600088815260200190815260200160002060000160009054906101000a900473ffffffffffffffffffffffffffffffffffffffff1673ffffffffffffffffffffffffffffffffffffffff1673ffffffffffffffffffffffffffffffffffffffff168152602001908152602001600020600082825401925050819055505b61214e60ea5461141c565b60eb81905550600060ee541415801561216a5750600060eb5410155b8015612179575060ea5460eb54105b1561220e5760b860eb5460328110151561218f57fe5b0160009054906101000a900473ffffffffffffffffffffffffffffffffffffffff16905060ee5460b760008373ffffffffffffffffffffffffffffffffffffffff1673ffffffffffffffffffffffffffffffffffffffff16815260200190815260200160002060010160008282540192505081905550600060ee819055505b608360008581526020019081526020016000206003015460836000868152602001908152602001600020600401549250925050915091565b60008060003373ffffffffffffffffffffffffffffffffffffffff161415151561226f57600080fd5b60a0604051908101604052803373ffffffffffffffffffffffffffffffffffffffff168152602001600081526020016000815260200160008152602001600081525060b760003373ffffffffffffffffffffffffffffffffffffffff1673ffffffffffffffffffffffffffffffffffffffff16815260200190815260200160002060008201518160000160006101000a81548173ffffffffffffffffffffffffffffffffffffffff021916908373ffffffffffffffffffffffffffffffffffffffff16021790555060208201518160010155604082015181600201556060820151816003015560808201518160040155905050610400905060a0604051908101604052803373ffffffffffffffffffffffffffffffffffffffff1681526020016000815260200182815260200160006001026000191681526020016000600102600019168152506083600085815260200190815260200160002060008201518160000160006101000a81548173ffffffffffffffffffffffffffffffffffffffff021916908373ffffffffffffffffffffffffffffffffffffffff16021790555060208201518160010155604082015181600201556060820151816003019060001916905560808201518160040190600019169055905050603260b654101561247b5782608460b65460328110151561246457fe5b0181905550600160b6600082825401925050819055505b8060b760003373ffffffffffffffffffffffffffffffffffffffff1673ffffffffffffffffffffffffffffffffffffffff168152602001908152602001600020600301819055506001915050919050565b608260009054906101000a900473ffffffffffffffffffffffffffffffffffffffff1673ffffffffffffffffffffffffffffffffffffffff163373ffffffffffffffffffffffffffffffffffffffff1614151561252857600080fd5b600073ffffffffffffffffffffffffffffffffffffffff168173ffffffffffffffffffffffffffffffffffffffff161415151561256457600080fd5b80608260006101000a81548173ffffffffffffffffffffffffffffffffffffffff021916908373ffffffffffffffffffffffffffffffffffffffff16021790555050565b600060f360009054906101000a900473ffffffffffffffffffffffffffffffffffffffff1673ffffffffffffffffffffffffffffffffffffffff166301a5e3fe836040518263ffffffff167c0100000000000000000000000000000000000000000000000000000000028152600401808260001916600019168152602001915050602060405180830381600087803b15801561264357600080fd5b505af1158015612657573d6000803e3d6000fd5b505050506040513d602081101561266d57600080fd5b81019080805190602001909291905050509050919050565b60eb5481565b600060eb54905090565b600080828402905060008414806126b657508284828115156126b357fe5b04145b15156126be57fe5b8091505092915050565b60008082848115156126d657fe5b0490508091505092915050565b60008082840190508381101515156126f757fe5b8091505092915050565b6000806000808463ffffffff168663ffffffff1661271f8a8a612777565b0281151561272957fe5b049150612735826128de565b905061274e81607f0360ff16839060020a90048261299e565b8193509350505094509492505050565b600082821115151561276c57fe5b818303905092915050565b60008060008060007001ffffffffffffffffffffffffffffffff871115151561279c57fe5b60009350856f8000000000000000000000000000000088028115156127bd57fe5b04925070010000000000000000000000000000000083101515612826576127fe6f80000000000000000000000000000000848115156127f857fe5b04612dc2565b91508160ff16839060020a900492506f800000000000000000000000000000008260ff160293505b6f800000000000000000000000000000008311156128b457607f90505b60008160ff1611156128b3576f8000000000000000000000000000000083840281151561286c57fe5b049250700100000000000000000000000000000000831015156128a7576001839060020a900492506001810360ff1660019060020a02840193505b80600190039050612843565b5b607a60ff166f02c5c85fdf473de6af278ece600fcbda85029060020a900494505050505092915050565b60008060008060209250607f91505b8160ff166001840160ff16101561293f57600282840160ff1681151561290f57fe5b0490508460018260ff1660808110151561292557fe5b01541015156129365780925061293a565b8091505b6128ed565b8460018360ff1660808110151561295257fe5b015410151561296357819350612996565b8460018460ff1660808110151561297657fe5b015410151561298757829350612996565b6000151561299157fe5b600093505b505050919050565b6000806000849150600090508360ff168583029060020a900491506f03442c4e6074a82f1797f72ac00000008202810190508360ff168583029060020a900491506f0116b96f757c380fb287fd0e400000008202810190508360ff168583029060020a900491506e45ae5bdd5f0e03eca1ff43900000008202810190508360ff168583029060020a900491506e0defabf91302cd95b9ffda500000008202810190508360ff168583029060020a900491506e02529ca9832b22439efff9b80000008202810190508360ff168583029060020a900491506d54f1cf12bd04e516b6da880000008202810190508360ff168583029060020a900491506d0a9e39e257a09ca2d6db510000008202810190508360ff168583029060020a900491506d012e066e7b839fa050c3090000008202810190508360ff168583029060020a900491506c1e33d7d926c329a1ad1a8000008202810190508360ff168583029060020a900491506c02bee513bdb4a6b19b5f8000008202810190508360ff168583029060020a900491506b3a9316fa79b88eccf2a000008202810190508360ff168583029060020a900491506b048177ebe1fa8123752000008202810190508360ff168583029060020a900491506a5263fe90242dcbacf000008202810190508360ff168583029060020a900491506a057e22099c030d941000008202810190508360ff168583029060020a900491506957e22099c030d94100008202810190508360ff168583029060020a9004915069052b6b545699763100008202810190508360ff168583029060020a90049150684985f67696bf7480008202810190508360ff168583029060020a900491506803dea12ea99e4980008202810190508360ff168583029060020a900491506731880f2214b6e0008202810190508360ff168583029060020a9004915067025bcff56eb360008202810190508360ff168583029060020a90049150661b722e10ab10008202810190508360ff168583029060020a900491506601317c700770008202810190508360ff168583029060020a90049150650cba84aafa008202810190508360ff168583029060020a900491506482573a0a008202810190508360ff168583029060020a900491506405035ad9008202810190508360ff168583029060020a90049150632f881b008202810190508360ff168583029060020a900491506301b293408202810190508360ff168583029060020a90049150620efc408202810190508360ff168583029060020a90049150617fe08202810190508360ff168583029060020a900491506104208202810190508360ff168583029060020a9004915060218202810190508360ff168583029060020a9004915060018202810190508360ff1660019060020a02856f0688589cc0e9505e2f2fee558000000083811515612db557fe5b0401019250505092915050565b60008060008060009250849150610100821015612dfe575b6001821115612df9576001829060020a90049150600183019250612dda565b612e49565b608090505b60008160ff161115612e48578060ff1660019060020a0282101515612e35578060ff16829060020a9004915080831792505b60018160ff169060020a90049050612e03565b5b829350505050919050565b610640604051908101604052806032906020820280388339808201915050905050905600a165627a7a72305820c4216de251a9cf9dc9c51089832a26ff7ffd957822be710b483f11164138eb5b0029",
  "source": "pragma solidity ^0.4.21;\n\nimport './token/OceanToken.sol';\nimport './tcr/Registry.sol';\nimport './bondingCurve/BancorFormula.sol';\n\nimport './zeppelin/Ownable.sol';\nimport './zeppelin/SafeMath.sol';\n\n\n\ncontract Market is BancorFormula, Ownable {\n\n    using SafeMath for uint256;\n    using SafeMath for uint;\n\n\n    // data Asset\n    struct Asset{\n          address owner;                          // owner of the Asset\n          uint256 ndrops;                         // total supply of Drops\n          uint256 bitSize;                        // size of asset in bit\n          bytes32 url;                            // url of the asset\n          bytes32 token;                          // token to get access to the asset\n          mapping (address => uint256) drops;     // mapping provider (address) to their stakes on dataset Sij\n          mapping (address => uint256) delivery;  // mapping provider (address) to their #delivery of dataset Dj\n    }\n    mapping (uint256 => Asset) public mAssets;           // mapping assetId to Asset struct\n    uint256[50] public  listAssets;\n    uint256     private  sizeListAssets= 0;\n\n    // data Provider\n    struct Provider{\n          address provider;\n          uint256 numOCN;                        // Ocean token balance\n          uint256 allowanceOCN;                  // available Ocean tokens for transfer excuding locked tokens for staking\n          uint256 uploadBits;                    // total number of bits that served across all data assets with stakes\n          uint256 downloadBits;                  // total number of bits that download across all data assets with stakes\n    }\n    mapping (address => Provider) public mProviders;    // mapping providerId to Provider struct\n    address[50] public  listProviders;\n    uint256     public sizeProviders= 0;\n    uint256     public winProvider = 0;\n\n    // marketplace global variables\n    OceanToken  public  mToken;\n    uint256     public  mAllowance;             // total available Ocean tokens for transfer (exclude locked tokens)\n    uint256     public  rewardPool;             // T_difficulty: total OCN emitted during the interval\n\n    // bonding Curve\n    uint256 public totalSupply = 10;          // initial total supply\n    uint256 public poolBalance = 1;           // poolBalance for specific dataset\n    uint32  public reserveRatio = 500000;      // max 1000000, reserveRatio = 20%\n    uint256 public tokensToMint = 0;\n\n    // TCR\n    Registry  public  tcr;\n\n    function checkListingStatus(bytes32 listing) public view returns(bool){\n      return tcr.isWhitelisted(listing);\n    }\n\n    ///////////////////////////////////////////////////////////////////\n    //  Query function\n    ///////////////////////////////////////////////////////////////////\n    function dropsBalance(uint256 assetId) public view returns (uint256){\n        require(msg.sender != 0x0);\n        return mAssets[assetId].drops[msg.sender];\n    }\n\n    function rnd() public view returns (uint256) {\n      return winProvider;\n    }\n\n    function tokenBalance() public view returns (uint256) {\n      require(mProviders[msg.sender].provider != 0x0);\n      return mProviders[msg.sender].numOCN;\n    }\n    ///////////////////////////////////////////////////////////////////\n    //  Constructor function\n    ///////////////////////////////////////////////////////////////////\n    // 1. constructor\n    function Market(address _tokenAddress, address _tcrAddress) public {\n        require(_tokenAddress != address(0));\n        // instantiate deployed Ocean token contract\n\t\t    mToken = OceanToken(_tokenAddress);\n        // instance of TCR\n        tcr = Registry(_tcrAddress);\n        // set the token receiver to be marketplace\n        mToken.setReceiver(address(this));\n        // setReceiver funciton will transfer initial funds to Market contract\n        mAllowance = mToken.balanceOf(address(this));\n    }\n\n    ///////////////////////////////////////////////////////////////////\n    // Actor and Asset routine procedures\n    ///////////////////////////////////////////////////////////////////\n\n    // 1. register provider and assets upload by changing uploadBits\n    function register(uint256 assetId) public returns (bool success) {\n      require(msg.sender != 0x0);\n      // register provider\n      mProviders[msg.sender] = Provider(msg.sender, 0, 0, 0, 0);\n\n      // register assets\n      uint256 fileSize = 1024;\n      mAssets[assetId] = Asset(msg.sender, 0, fileSize, 0, 0);  // Creates new struct and saves in storage. We leave out the mapping type.\n\n      if (sizeListAssets < 50)  {\n          listAssets[sizeListAssets] = assetId;\n          sizeListAssets += 1;\n      }\n\n      // simulate uploading dataSet\n      mProviders[msg.sender].uploadBits = fileSize;\n      return true;\n    }\n\n\n    // publish consumption information about an Asset\n    function publish(uint256 assetId, bytes32 _url, bytes32 _token) external returns (bool success) {\n         require(mAssets[assetId].owner != 0x0);\n         require(msg.sender == mAssets[assetId].owner);\n\n        mAssets[assetId].url= _url;\n        mAssets[assetId].token= _token;\n    }\n\n    // purchase an asset and get the consumption information - called by consumer\n    function purchase(uint256 assetId) external returns (bytes32 url, bytes32 token) {\n        require(mAssets[assetId].owner != 0x0);\n\n        // increment counter\n        if (sizeProviders < 50)  {\n          listProviders[sizeProviders] = mAssets[assetId].owner;\n          sizeProviders += 1;\n          mAssets[assetId].delivery[mAssets[assetId].owner] += 1;\n        }\n\n        // request token rewards for provider\n        winProvider = rng(sizeProviders);\n        if(rewardPool != 0 && winProvider >= 0 && winProvider < sizeProviders ){\n          address winner = listProviders[winProvider];\n          mProviders[winner].numOCN += rewardPool;\n          rewardPool = 0 ;\n        }\n\n        return (mAssets[assetId].url, mAssets[assetId].token);\n    }\n\n    function listAssets() external view returns (uint256[50]) {\n        return listAssets;\n    }\n\n        // 2. request initial fund transfer\n    function requestTokens(uint256 amount) public returns (uint256) {\n      require(msg.sender != 0x0);\n      // find amount of tokens need or can be transferred\n      uint256 nToken = 0;\n      if (mAllowance >= amount){\n        nToken = amount;\n      } else {\n        nToken = mAllowance;\n      }\n      // withdraw tokens from Marketplace -> remember to decrease allowance first!!\n      mAllowance -= nToken;\n      // the OCN tokens is held in user wallet rather than market escrow accounts -> do not change provider balances\n      require(mToken.transfer(msg.sender, nToken));\n      return nToken;\n    }\n\n\n    // 5. withdraw\n    function withdraw() public returns (bool) {\n      //require(mProviders[msg.sender].allowanceOCN >= mProviders[msg.sender].numOCN);\n      //require(mAllowance >= mProviders[msg.sender].numOCN);\n      uint256 amount = mProviders[msg.sender].numOCN;\n      mProviders[msg.sender].numOCN = 0;\n      mAllowance -= amount;\n      mProviders[msg.sender].allowanceOCN -= amount;\n      require(mToken.transfer(msg.sender, amount));\n      return true;\n    }\n\n\n\n\n    ///////////////////////////////////////////////////////////////////\n    // Block Reward Module\n    ///////////////////////////////////////////////////////////////////\n\n    // marketplace request the emitted Ocean Tokens which are transferred to market\n    function mintToken() public returns (uint256 balance) {\n      uint256 previous = mToken.balanceOf(address(this));\n      require(mToken.emitTokens());\n      uint256 current  = mToken.balanceOf(address(this));\n      // credit emitted tokens to block reward pool\n      rewardPool += current - previous;\n\n      // raise the limit of token allowance for marketplace\n      mAllowance += current - previous;\n      // return the current token balance\n      return current;\n    }\n\n    ///////////////////////////////////////////////////////////////////\n    // Bonding Curve Module\n    ///////////////////////////////////////////////////////////////////\n\n    // 1. bondingCurve function - buy Drops - call by any actors\n    function buyDrops(uint256 _assetId, uint256 _ocn) public returns (uint256 _drops) {\n      // First transfer _ocn tokens into Marketplace escrow account to purchase Drops\n      mProviders[msg.sender].numOCN += _ocn;\n      mProviders[msg.sender].allowanceOCN += _ocn;\n      mAllowance += _ocn;\n      require(mToken.transferFrom(msg.sender, address(this), _ocn));\n\n\n      //uint256 tokensToMint = 0; mAssets[_assetId].ndrops\n      tokensToMint = calculatePurchaseReturn(totalSupply, poolBalance, reserveRatio, _ocn);\n      mAssets[_assetId].ndrops = mAssets[_assetId].ndrops.add(tokensToMint);\n\n      // 4. update balances\n\n      // increment total ndrops\n      totalSupply  += tokensToMint;\n      poolBalance = poolBalance.add(_ocn);\n\n      //mAssets[_assetId].ndrops += tokensToMint;\n      // lock ocean Tokens\n      mProviders[msg.sender].numOCN -= _ocn;\n      mProviders[msg.sender].allowanceOCN -= _ocn;\n      mAllowance -= _ocn;\n      mAssets[_assetId].drops[msg.sender] += tokensToMint;\n\n      return tokensToMint;\n    }\n\n    function sellDrops(uint256 _assetId, uint256 _drops) public returns (uint256 _ocn) {\n      require(mProviders[msg.sender].provider != 0x0);\n\n      uint256 ocnAmount = calculateSaleReturn(totalSupply, poolBalance, reserveRatio, _drops);\n\n      // 4. update balances\n      totalSupply = totalSupply.sub(_drops);\n      poolBalance = poolBalance.sub(ocnAmount);\n      // decrement total ndrops\n      mAssets[_assetId].ndrops = mAssets[_assetId].ndrops.sub(_drops);\n      // unlock ocean Tokens\n      mProviders[msg.sender].numOCN += ocnAmount;\n      mProviders[msg.sender].allowanceOCN += ocnAmount;\n      mAllowance += ocnAmount;\n      // decrement drops balance of actors\n      mAssets[_assetId].drops[msg.sender] -= _drops;\n      return ocnAmount;\n    }\n\n\n    ///////////////////////////////////////////////////////////////////\n    // XOR random number generator\n    ///////////////////////////////////////////////////////////////////\n\n    function rng(uint256 limit) public view returns (uint256) {\n      return uint256(uint256(keccak256(block.timestamp, block.difficulty))%limit);\n    }\n\n\n    ///////////////////////////////////////////////////////////////////\n    // Utility Functions\n    ///////////////////////////////////////////////////////////////////\n    /*\n     *  Constants\n     */\n    // This is equal to 1 in our calculations\n    uint public constant ONE =  0x10000000000000000;\n    uint public constant LN2 = 0xb17217f7d1cf79ac;\n    uint public constant LOG2_E = 0x171547652b82fe177;\n\n    // 1. square root function\n    function sqrt(uint x) internal pure returns (uint y) {\n        if (x == 0) return 0;\n        else if (x <= 3) return 1;\n        uint z = (x + 1) / 2;\n        y = x;\n        while (z < y){\n            y = z;\n            z = (x / z + z) / 2;\n        }\n    }\n\n\n    /// @dev Returns maximum of an array\n    /// @param i1 Numbers to look through\n    /// @param i2 Numbers to look through\n    /// @return Maximum number\n    function findMax(uint256 i1, uint256 i2) internal pure returns (uint) {\n        if (i1 > i2) {\n            return i1;\n        } else {\n            return i2;\n        }\n    }\n\n\n}\n",
  "sourcePath": "/home/dimi/oceanprotocol/plankton-keeper/contracts/Market.sol",
  "compiler": {
    "name": "solc",
    "version": "0.4.24+commit.e67f0147.Emscripten.clang"
  },
  "schemaVersion": "2.0.0",
  "updatedAt": "2018-06-05T15:01:12.582Z"
}