{
  "contractName": "PLCRVoting",
  "abi": [
    {
      "constant": true,
      "inputs": [],
      "name": "INITIAL_POLL_NONCE",
      "outputs": [
        {
          "name": "",
          "type": "uint256"
        }
      ],
      "payable": false,
      "stateMutability": "view",
      "type": "function"
    },
    {
      "constant": true,
      "inputs": [
        {
          "name": "",
          "type": "address"
        }
      ],
      "name": "voteTokenBalance",
      "outputs": [
        {
          "name": "",
          "type": "uint256"
        }
      ],
      "payable": false,
      "stateMutability": "view",
      "type": "function"
    },
    {
      "constant": true,
      "inputs": [
        {
          "name": "",
          "type": "uint256"
        }
      ],
      "name": "pollMap",
      "outputs": [
        {
          "name": "commitEndDate",
          "type": "uint256"
        },
        {
          "name": "revealEndDate",
          "type": "uint256"
        },
        {
          "name": "voteQuorum",
          "type": "uint256"
        },
        {
          "name": "votesFor",
          "type": "uint256"
        },
        {
          "name": "votesAgainst",
          "type": "uint256"
        }
      ],
      "payable": false,
      "stateMutability": "view",
      "type": "function"
    },
    {
      "constant": true,
      "inputs": [],
      "name": "pollNonce",
      "outputs": [
        {
          "name": "",
          "type": "uint256"
        }
      ],
      "payable": false,
      "stateMutability": "view",
      "type": "function"
    },
    {
      "constant": true,
      "inputs": [],
      "name": "token",
      "outputs": [
        {
          "name": "",
          "type": "address"
        }
      ],
      "payable": false,
      "stateMutability": "view",
      "type": "function"
    },
    {
      "inputs": [
        {
          "name": "_tokenAddr",
          "type": "address"
        }
      ],
      "payable": false,
      "stateMutability": "nonpayable",
      "type": "constructor"
    },
    {
      "anonymous": false,
      "inputs": [
        {
          "indexed": true,
          "name": "pollID",
          "type": "uint256"
        },
        {
          "indexed": false,
          "name": "numTokens",
          "type": "uint256"
        },
        {
          "indexed": true,
          "name": "voter",
          "type": "address"
        }
      ],
      "name": "_VoteCommitted",
      "type": "event"
    },
    {
      "anonymous": false,
      "inputs": [
        {
          "indexed": true,
          "name": "pollID",
          "type": "uint256"
        },
        {
          "indexed": false,
          "name": "numTokens",
          "type": "uint256"
        },
        {
          "indexed": false,
          "name": "votesFor",
          "type": "uint256"
        },
        {
          "indexed": false,
          "name": "votesAgainst",
          "type": "uint256"
        },
        {
          "indexed": true,
          "name": "choice",
          "type": "uint256"
        },
        {
          "indexed": true,
          "name": "voter",
          "type": "address"
        }
      ],
      "name": "_VoteRevealed",
      "type": "event"
    },
    {
      "anonymous": false,
      "inputs": [
        {
          "indexed": false,
          "name": "voteQuorum",
          "type": "uint256"
        },
        {
          "indexed": false,
          "name": "commitEndDate",
          "type": "uint256"
        },
        {
          "indexed": false,
          "name": "revealEndDate",
          "type": "uint256"
        },
        {
          "indexed": true,
          "name": "pollID",
          "type": "uint256"
        },
        {
          "indexed": true,
          "name": "creator",
          "type": "address"
        }
      ],
      "name": "_PollCreated",
      "type": "event"
    },
    {
      "anonymous": false,
      "inputs": [
        {
          "indexed": false,
          "name": "numTokens",
          "type": "uint256"
        },
        {
          "indexed": true,
          "name": "voter",
          "type": "address"
        }
      ],
      "name": "_VotingRightsGranted",
      "type": "event"
    },
    {
      "anonymous": false,
      "inputs": [
        {
          "indexed": false,
          "name": "numTokens",
          "type": "uint256"
        },
        {
          "indexed": true,
          "name": "voter",
          "type": "address"
        }
      ],
      "name": "_VotingRightsWithdrawn",
      "type": "event"
    },
    {
      "anonymous": false,
      "inputs": [
        {
          "indexed": true,
          "name": "pollID",
          "type": "uint256"
        },
        {
          "indexed": true,
          "name": "voter",
          "type": "address"
        }
      ],
      "name": "_TokensRescued",
      "type": "event"
    },
    {
      "constant": false,
      "inputs": [
        {
          "name": "_numTokens",
          "type": "uint256"
        }
      ],
      "name": "requestVotingRights",
      "outputs": [],
      "payable": false,
      "stateMutability": "nonpayable",
      "type": "function"
    },
    {
      "constant": false,
      "inputs": [
        {
          "name": "_numTokens",
          "type": "uint256"
        }
      ],
      "name": "withdrawVotingRights",
      "outputs": [],
      "payable": false,
      "stateMutability": "nonpayable",
      "type": "function"
    },
    {
      "constant": false,
      "inputs": [
        {
          "name": "_pollID",
          "type": "uint256"
        }
      ],
      "name": "rescueTokens",
      "outputs": [],
      "payable": false,
      "stateMutability": "nonpayable",
      "type": "function"
    },
    {
      "constant": false,
      "inputs": [
        {
          "name": "_pollID",
          "type": "uint256"
        },
        {
          "name": "_secretHash",
          "type": "bytes32"
        },
        {
          "name": "_numTokens",
          "type": "uint256"
        },
        {
          "name": "_prevPollID",
          "type": "uint256"
        }
      ],
      "name": "commitVote",
      "outputs": [],
      "payable": false,
      "stateMutability": "nonpayable",
      "type": "function"
    },
    {
      "constant": true,
      "inputs": [
        {
          "name": "_prevID",
          "type": "uint256"
        },
        {
          "name": "_nextID",
          "type": "uint256"
        },
        {
          "name": "_voter",
          "type": "address"
        },
        {
          "name": "_numTokens",
          "type": "uint256"
        }
      ],
      "name": "validPosition",
      "outputs": [
        {
          "name": "valid",
          "type": "bool"
        }
      ],
      "payable": false,
      "stateMutability": "view",
      "type": "function"
    },
    {
      "constant": false,
      "inputs": [
        {
          "name": "_pollID",
          "type": "uint256"
        },
        {
          "name": "_voteOption",
          "type": "uint256"
        },
        {
          "name": "_salt",
          "type": "uint256"
        }
      ],
      "name": "revealVote",
      "outputs": [],
      "payable": false,
      "stateMutability": "nonpayable",
      "type": "function"
    },
    {
      "constant": true,
      "inputs": [
        {
          "name": "_voter",
          "type": "address"
        },
        {
          "name": "_pollID",
          "type": "uint256"
        },
        {
          "name": "_salt",
          "type": "uint256"
        }
      ],
      "name": "getNumPassingTokens",
      "outputs": [
        {
          "name": "correctVotes",
          "type": "uint256"
        }
      ],
      "payable": false,
      "stateMutability": "view",
      "type": "function"
    },
    {
      "constant": false,
      "inputs": [
        {
          "name": "_voteQuorum",
          "type": "uint256"
        },
        {
          "name": "_commitDuration",
          "type": "uint256"
        },
        {
          "name": "_revealDuration",
          "type": "uint256"
        }
      ],
      "name": "startPoll",
      "outputs": [
        {
          "name": "pollID",
          "type": "uint256"
        }
      ],
      "payable": false,
      "stateMutability": "nonpayable",
      "type": "function"
    },
    {
      "constant": true,
      "inputs": [
        {
          "name": "_pollID",
          "type": "uint256"
        }
      ],
      "name": "isPassed",
      "outputs": [
        {
          "name": "passed",
          "type": "bool"
        }
      ],
      "payable": false,
      "stateMutability": "view",
      "type": "function"
    },
    {
      "constant": true,
      "inputs": [
        {
          "name": "_pollID",
          "type": "uint256"
        }
      ],
      "name": "getTotalNumberOfTokensForWinningOption",
      "outputs": [
        {
          "name": "numTokens",
          "type": "uint256"
        }
      ],
      "payable": false,
      "stateMutability": "view",
      "type": "function"
    },
    {
      "constant": true,
      "inputs": [
        {
          "name": "_pollID",
          "type": "uint256"
        }
      ],
      "name": "pollEnded",
      "outputs": [
        {
          "name": "ended",
          "type": "bool"
        }
      ],
      "payable": false,
      "stateMutability": "view",
      "type": "function"
    },
    {
      "constant": true,
      "inputs": [
        {
          "name": "_pollID",
          "type": "uint256"
        }
      ],
      "name": "commitPeriodActive",
      "outputs": [
        {
          "name": "active",
          "type": "bool"
        }
      ],
      "payable": false,
      "stateMutability": "view",
      "type": "function"
    },
    {
      "constant": true,
      "inputs": [
        {
          "name": "_pollID",
          "type": "uint256"
        }
      ],
      "name": "revealPeriodActive",
      "outputs": [
        {
          "name": "active",
          "type": "bool"
        }
      ],
      "payable": false,
      "stateMutability": "view",
      "type": "function"
    },
    {
      "constant": true,
      "inputs": [
        {
          "name": "_voter",
          "type": "address"
        },
        {
          "name": "_pollID",
          "type": "uint256"
        }
      ],
      "name": "didCommit",
      "outputs": [
        {
          "name": "committed",
          "type": "bool"
        }
      ],
      "payable": false,
      "stateMutability": "view",
      "type": "function"
    },
    {
      "constant": true,
      "inputs": [
        {
          "name": "_voter",
          "type": "address"
        },
        {
          "name": "_pollID",
          "type": "uint256"
        }
      ],
      "name": "didReveal",
      "outputs": [
        {
          "name": "revealed",
          "type": "bool"
        }
      ],
      "payable": false,
      "stateMutability": "view",
      "type": "function"
    },
    {
      "constant": true,
      "inputs": [
        {
          "name": "_pollID",
          "type": "uint256"
        }
      ],
      "name": "pollExists",
      "outputs": [
        {
          "name": "exists",
          "type": "bool"
        }
      ],
      "payable": false,
      "stateMutability": "view",
      "type": "function"
    },
    {
      "constant": true,
      "inputs": [
        {
          "name": "_voter",
          "type": "address"
        },
        {
          "name": "_pollID",
          "type": "uint256"
        }
      ],
      "name": "getCommitHash",
      "outputs": [
        {
          "name": "commitHash",
          "type": "bytes32"
        }
      ],
      "payable": false,
      "stateMutability": "view",
      "type": "function"
    },
    {
      "constant": true,
      "inputs": [
        {
          "name": "_voter",
          "type": "address"
        },
        {
          "name": "_pollID",
          "type": "uint256"
        }
      ],
      "name": "getNumTokens",
      "outputs": [
        {
          "name": "numTokens",
          "type": "uint256"
        }
      ],
      "payable": false,
      "stateMutability": "view",
      "type": "function"
    },
    {
      "constant": true,
      "inputs": [
        {
          "name": "_voter",
          "type": "address"
        }
      ],
      "name": "getLastNode",
      "outputs": [
        {
          "name": "pollID",
          "type": "uint256"
        }
      ],
      "payable": false,
      "stateMutability": "view",
      "type": "function"
    },
    {
      "constant": true,
      "inputs": [
        {
          "name": "_voter",
          "type": "address"
        }
      ],
      "name": "getLockedTokens",
      "outputs": [
        {
          "name": "numTokens",
          "type": "uint256"
        }
      ],
      "payable": false,
      "stateMutability": "view",
      "type": "function"
    },
    {
      "constant": true,
      "inputs": [
        {
          "name": "_voter",
          "type": "address"
        },
        {
          "name": "_numTokens",
          "type": "uint256"
        },
        {
          "name": "_pollID",
          "type": "uint256"
        }
      ],
      "name": "getInsertPointForNumTokens",
      "outputs": [
        {
          "name": "prevNode",
          "type": "uint256"
        }
      ],
      "payable": false,
      "stateMutability": "view",
      "type": "function"
    },
    {
      "constant": true,
      "inputs": [
        {
          "name": "_terminationDate",
          "type": "uint256"
        }
      ],
      "name": "isExpired",
      "outputs": [
        {
          "name": "expired",
          "type": "bool"
        }
      ],
      "payable": false,
      "stateMutability": "view",
      "type": "function"
    },
    {
      "constant": true,
      "inputs": [],
      "name": "queryTS",
      "outputs": [
        {
          "name": "",
          "type": "uint256"
        }
      ],
      "payable": false,
      "stateMutability": "view",
      "type": "function"
    },
    {
      "constant": false,
      "inputs": [
        {
          "name": "_pollID",
          "type": "uint256"
        }
      ],
      "name": "queryCommitEndDate",
      "outputs": [
        {
          "name": "",
          "type": "uint256"
        }
      ],
      "payable": false,
      "stateMutability": "nonpayable",
      "type": "function"
    },
    {
      "constant": false,
      "inputs": [
        {
          "name": "_pollID",
          "type": "uint256"
        }
      ],
      "name": "queryRevealEndDate",
      "outputs": [
        {
          "name": "",
          "type": "uint256"
        }
      ],
      "payable": false,
      "stateMutability": "nonpayable",
      "type": "function"
    },
    {
      "constant": true,
      "inputs": [
        {
          "name": "_user",
          "type": "address"
        },
        {
          "name": "_pollID",
          "type": "uint256"
        }
      ],
      "name": "attrUUID",
      "outputs": [
        {
          "name": "UUID",
          "type": "bytes32"
        }
      ],
      "payable": false,
      "stateMutability": "pure",
      "type": "function"
    }
  ],
  "bytecode": "0x608060405234801561001057600080fd5b506040516020806129248339810180604052810190808051906020019092919050505080600560006101000a81548173ffffffffffffffffffffffffffffffffffffffff021916908373ffffffffffffffffffffffffffffffffffffffff16021790555060008081905550506128998061008b6000396000f30060806040526004361061018b576000357c0100000000000000000000000000000000000000000000000000000000900463ffffffff168063053e71a6146101905780630a9b79c5146101d15780632173a10f146101fc5780632c0520311461022757806332ed3d60146102925780633b930294146102e7578063427fa1d21461033e578063441c77c01461039557806349403183146103da5780634d7b7d831461041f5780636148fed5146104605780636b2d95d4146104bd5780636cbf9c5e146105145780637f97e83614610563578063819b0293146105c857806388d21ff31461064157806397508f361461068657806397603560146106b1578063a1103f37146106de578063a25236fe14610747578063a4439dc514610774578063aa7ca464146107b9578063b11d8bb81461081e578063b43bd0691461085f578063d1382092146108ca578063d901402b1461092b578063d9548e5314610994578063e1106b97146109d9578063e7b1d43c14610a1a578063ee68483014610a47578063fc0c546a14610a8c575b600080fd5b34801561019c57600080fd5b506101bb60048036038101908080359060200190929190505050610ae3565b6040518082815260200191505060405180910390f35b3480156101dd57600080fd5b506101e6610b44565b6040518082815260200191505060405180910390f35b34801561020857600080fd5b50610211610b4c565b6040518082815260200191505060405180910390f35b34801561023357600080fd5b5061027c600480360381019080803573ffffffffffffffffffffffffffffffffffffffff1690602001909291908035906020019092919080359060200190929190505050610b51565b6040518082815260200191505060405180910390f35b34801561029e57600080fd5b506102d1600480360381019080803590602001909291908035906020019092919080359060200190929190505050610d90565b6040518082815260200191505060405180910390f35b3480156102f357600080fd5b50610328600480360381019080803573ffffffffffffffffffffffffffffffffffffffff169060200190929190505050610ead565b6040518082815260200191505060405180910390f35b34801561034a57600080fd5b5061037f600480360381019080803573ffffffffffffffffffffffffffffffffffffffff169060200190929190505050610ec5565b6040518082815260200191505060405180910390f35b3480156103a157600080fd5b506103c060048036038101908080359060200190929190505050610fbd565b604051808215151515815260200191505060405180910390f35b3480156103e657600080fd5b506104056004803603810190808035906020019092919050505061100c565b604051808215151515815260200191505060405180910390f35b34801561042b57600080fd5b5061044a6004803603810190808035906020019092919050505061109f565b6040518082815260200191505060405180910390f35b34801561046c57600080fd5b5061048b600480360381019080803590602001909291905050506110bf565b604051808681526020018581526020018481526020018381526020018281526020019550505050505060405180910390f35b3480156104c957600080fd5b506104fe600480360381019080803573ffffffffffffffffffffffffffffffffffffffff1690602001909291905050506110f5565b6040518082815260200191505060405180910390f35b34801561052057600080fd5b506105616004803603810190808035906020019092919080356000191690602001909291908035906020019092919080359060200190929190505050611110565b005b34801561056f57600080fd5b506105ae600480360381019080803573ffffffffffffffffffffffffffffffffffffffff169060200190929190803590602001909291905050506117e9565b604051808215151515815260200191505060405180910390f35b3480156105d457600080fd5b506106276004803603810190808035906020019092919080359060200190929190803573ffffffffffffffffffffffffffffffffffffffff16906020019092919080359060200190929190505050611868565b604051808215151515815260200191505060405180910390f35b34801561064d57600080fd5b5061066c600480360381019080803590602001909291905050506118ac565b604051808215151515815260200191505060405180910390f35b34801561069257600080fd5b5061069b6118c7565b6040518082815260200191505060405180910390f35b3480156106bd57600080fd5b506106dc600480360381019080803590602001909291905050506118cd565b005b3480156106ea57600080fd5b50610729600480360381019080803573ffffffffffffffffffffffffffffffffffffffff16906020019092919080359060200190929190505050611b02565b60405180826000191660001916815260200191505060405180910390f35b34801561075357600080fd5b5061077260048036038101908080359060200190929190505050611b65565b005b34801561078057600080fd5b5061079f60048036038101908080359060200190929190505050611e48565b604051808215151515815260200191505060405180910390f35b3480156107c557600080fd5b50610804600480360381019080803573ffffffffffffffffffffffffffffffffffffffff16906020019092919080359060200190929190505050611e85565b604051808215151515815260200191505060405180910390f35b34801561082a57600080fd5b5061085d600480360381019080803590602001909291908035906020019092919080359060200190929190505050611f04565b005b34801561086b57600080fd5b506108b4600480360381019080803573ffffffffffffffffffffffffffffffffffffffff169060200190929190803590602001909291908035906020019092919050505061225a565b6040518082815260200191505060405180910390f35b3480156108d657600080fd5b50610915600480360381019080803573ffffffffffffffffffffffffffffffffffffffff16906020019092919080359060200190929190505050612354565b6040518082815260200191505060405180910390f35b34801561093757600080fd5b50610976600480360381019080803573ffffffffffffffffffffffffffffffffffffffff16906020019092919080359060200190929190505050612459565b60405180826000191660001916815260200191505060405180910390f35b3480156109a057600080fd5b506109bf60048036038101908080359060200190929190505050612561565b604051808215151515815260200191505060405180910390f35b3480156109e557600080fd5b50610a046004803603810190808035906020019092919050505061256d565b6040518082815260200191505060405180910390f35b348015610a2657600080fd5b50610a456004803603810190808035906020019092919050505061258d565b005b348015610a5357600080fd5b50610a72600480360381019080803590602001909291905050506127a4565b604051808215151515815260200191505060405180910390f35b348015610a9857600080fd5b50610aa16127e0565b604051808273ffffffffffffffffffffffffffffffffffffffff1673ffffffffffffffffffffffffffffffffffffffff16815260200191505060405180910390f35b6000610aee826127a4565b1515610af957600080fd5b610b028261100c565b15610b255760016000838152602001908152602001600020600301549050610b3f565b600160008381526020019081526020016000206004015490505b919050565b600042905090565b600081565b6000806000610b5f86610ec5565b9150610b6b8683612354565b90505b600082141515610d8357610b828683612354565b90508481111515610c8e5783821415610c8657600360008773ffffffffffffffffffffffffffffffffffffffff1673ffffffffffffffffffffffffffffffffffffffff16815260200190815260200160002073__DLL___________________________________6330fe0a0a9091846040518363ffffffff167c0100000000000000000000000000000000000000000000000000000000028152600401808381526020018281526020019250505060206040518083038186803b158015610c4857600080fd5b505af4158015610c5c573d6000803e3d6000fd5b505050506040513d6020811015610c7257600080fd5b810190808051906020019092919050505091505b819250610d87565b600360008773ffffffffffffffffffffffffffffffffffffffff1673ffffffffffffffffffffffffffffffffffffffff16815260200190815260200160002073__DLL___________________________________6330fe0a0a9091846040518363ffffffff167c0100000000000000000000000000000000000000000000000000000000028152600401808381526020018281526020019250505060206040518083038186803b158015610d4157600080fd5b505af4158015610d55573d6000803e3d6000fd5b505050506040513d6020811015610d6b57600080fd5b81019080805190602001909291905050509150610b6e565b8192505b50509392505050565b6000806000600160005401600081905550610db4854261280690919063ffffffff16565b9150610dc9848361280690919063ffffffff16565b905060a060405190810160405280838152602001828152602001878152602001600081526020016000815250600160008054815260200190815260200160002060008201518160000155602082015181600101556040820151816002015560608201518160030155608082015181600401559050503373ffffffffffffffffffffffffffffffffffffffff166000547f404f1f1c229d9eb2a949e7584da6ffde9d059ef2169f487ca815434cce0640d088858560405180848152602001838152602001828152602001935050505060405180910390a3600054925050509392505050565b60026020528060005260406000206000915090505481565b6000600360008373ffffffffffffffffffffffffffffffffffffffff1673ffffffffffffffffffffffffffffffffffffffff16815260200190815260200160002073__DLL___________________________________6330fe0a0a909160006040518363ffffffff167c0100000000000000000000000000000000000000000000000000000000028152600401808381526020018281526020019250505060206040518083038186803b158015610f7b57600080fd5b505af4158015610f8f573d6000803e3d6000fd5b505050506040513d6020811015610fa557600080fd5b81019080805190602001909291905050509050919050565b6000610fc8826118ac565b1515610fd357600080fd5b610ff26001600084815260200190815260200160002060010154612561565b158015611005575061100382611e48565b155b9050919050565b600061101661283d565b61101f836127a4565b151561102a57600080fd5b6001600084815260200190815260200160002060a060405190810160405290816000820154815260200160018201548152602001600282015481526020016003820154815260200160048201548152505090508060800151816060015101816040015102816060015160640211915050919050565b600060016000838152602001908152602001600020600101549050919050565b60016020528060005260406000206000915090508060000154908060010154908060020154908060030154908060040154905085565b60006111098261110484610ec5565b612354565b9050919050565b60008061111c86611e48565b151561112757600080fd5b83600260003373ffffffffffffffffffffffffffffffffffffffff1673ffffffffffffffffffffffffffffffffffffffff168152602001908152602001600020541015151561117557600080fd5b6000861415151561118557600080fd5b600083148061127e5750600360003373ffffffffffffffffffffffffffffffffffffffff1673ffffffffffffffffffffffffffffffffffffffff16815260200190815260200160002073__DLL___________________________________63366a5ba29091856040518363ffffffff167c0100000000000000000000000000000000000000000000000000000000028152600401808381526020018281526020019250505060206040518083038186803b15801561124257600080fd5b505af4158015611256573d6000803e3d6000fd5b505050506040513d602081101561126c57600080fd5b81019080805190602001909291905050505b151561128957600080fd5b600360003373ffffffffffffffffffffffffffffffffffffffff1673ffffffffffffffffffffffffffffffffffffffff16815260200190815260200160002073__DLL___________________________________6307d29ac99091856040518363ffffffff167c0100000000000000000000000000000000000000000000000000000000028152600401808381526020018281526020019250505060206040518083038186803b15801561133c57600080fd5b505af4158015611350573d6000803e3d6000fd5b505050506040513d602081101561136657600080fd5b810190808051906020019092919050505091508582146113865781611475565b600360003373ffffffffffffffffffffffffffffffffffffffff1673ffffffffffffffffffffffffffffffffffffffff16815260200190815260200160002073__DLL___________________________________6307d29ac99091886040518363ffffffff167c0100000000000000000000000000000000000000000000000000000000028152600401808381526020018281526020019250505060206040518083038186803b15801561143957600080fd5b505af415801561144d573d6000803e3d6000fd5b505050506040513d602081101561146357600080fd5b81019080805190602001909291905050505b915061148383833387611868565b151561148e57600080fd5b600360003373ffffffffffffffffffffffffffffffffffffffff1673ffffffffffffffffffffffffffffffffffffffff16815260200190815260200160002073__DLL___________________________________639735c51b90918589866040518563ffffffff167c01000000000000000000000000000000000000000000000000000000000281526004018085815260200184815260200183815260200182815260200194505050505060006040518083038186803b15801561155157600080fd5b505af4158015611565573d6000803e3d6000fd5b505050506115733387611b02565b9050600473__AttributeStore________________________63977aa031909183876040518463ffffffff167c010000000000000000000000000000000000000000000000000000000002815260040180848152602001836000191660001916815260200180602001838152602001828103825260098152602001807f6e756d546f6b656e73000000000000000000000000000000000000000000000081525060200194505050505060006040518083038186803b15801561163457600080fd5b505af4158015611648573d6000803e3d6000fd5b50505050600473__AttributeStore________________________63977aa03190918388600190046040518463ffffffff167c0100000000000000000000000000000000000000000000000000000000028152600401808481526020018360001916600019168152602001806020018381526020018281038252600a8152602001807f636f6d6d6974486173680000000000000000000000000000000000000000000081525060200194505050505060006040518083038186803b15801561170f57600080fd5b505af4158015611723573d6000803e3d6000fd5b50505050600180600088815260200190815260200160002060050160003373ffffffffffffffffffffffffffffffffffffffff1673ffffffffffffffffffffffffffffffffffffffff16815260200190815260200160002060006101000a81548160ff0219169083151502179055503373ffffffffffffffffffffffffffffffffffffffff16867fea7979e4280d7e6bffc1c7d83a1ac99f16d02ecc14465ce41016226783b663d7866040518082815260200191505060405180910390a3505050505050565b60006117f4826118ac565b15156117ff57600080fd5b6001600083815260200190815260200160002060050160008473ffffffffffffffffffffffffffffffffffffffff1673ffffffffffffffffffffffffffffffffffffffff16815260200190815260200160002060009054906101000a900460ff16905092915050565b60008060006118778588612354565b84101591506118868587612354565b841115806118945750600086145b90508180156118a05750805b92505050949350505050565b60008082141580156118c057506000548211155b9050919050565b60005481565b6118ec6001600083815260200190815260200160002060010154612561565b15156118f757600080fd5b600360003373ffffffffffffffffffffffffffffffffffffffff1673ffffffffffffffffffffffffffffffffffffffff16815260200190815260200160002073__DLL___________________________________63366a5ba29091836040518363ffffffff167c0100000000000000000000000000000000000000000000000000000000028152600401808381526020018281526020019250505060206040518083038186803b1580156119aa57600080fd5b505af41580156119be573d6000803e3d6000fd5b505050506040513d60208110156119d457600080fd5b810190808051906020019092919050505015156119f057600080fd5b600360003373ffffffffffffffffffffffffffffffffffffffff1673ffffffffffffffffffffffffffffffffffffffff16815260200190815260200160002073__DLL___________________________________636d900ed09091836040518363ffffffff167c0100000000000000000000000000000000000000000000000000000000028152600401808381526020018281526020019250505060006040518083038186803b158015611aa357600080fd5b505af4158015611ab7573d6000803e3d6000fd5b505050503373ffffffffffffffffffffffffffffffffffffffff16817f402507661c8c8cb90e0a796450b8bdd28b6c516f05279c0cd29e84c344e1699a60405160405180910390a350565b60008282604051808373ffffffffffffffffffffffffffffffffffffffff1673ffffffffffffffffffffffffffffffffffffffff166c01000000000000000000000000028152601401828152602001925050506040518091039020905092915050565b80600560009054906101000a900473ffffffffffffffffffffffffffffffffffffffff1673ffffffffffffffffffffffffffffffffffffffff166370a08231336040518263ffffffff167c0100000000000000000000000000000000000000000000000000000000028152600401808273ffffffffffffffffffffffffffffffffffffffff1673ffffffffffffffffffffffffffffffffffffffff168152602001915050602060405180830381600087803b158015611c2357600080fd5b505af1158015611c37573d6000803e3d6000fd5b505050506040513d6020811015611c4d57600080fd5b810190808051906020019092919050505010151515611c6b57600080fd5b80600260003373ffffffffffffffffffffffffffffffffffffffff1673ffffffffffffffffffffffffffffffffffffffff16815260200190815260200160002060008282540192505081905550600560009054906101000a900473ffffffffffffffffffffffffffffffffffffffff1673ffffffffffffffffffffffffffffffffffffffff166323b872dd3330846040518463ffffffff167c0100000000000000000000000000000000000000000000000000000000028152600401808473ffffffffffffffffffffffffffffffffffffffff1673ffffffffffffffffffffffffffffffffffffffff1681526020018373ffffffffffffffffffffffffffffffffffffffff1673ffffffffffffffffffffffffffffffffffffffff1681526020018281526020019350505050602060405180830381600087803b158015611db157600080fd5b505af1158015611dc5573d6000803e3d6000fd5b505050506040513d6020811015611ddb57600080fd5b81019080805190602001909291905050501515611df757600080fd5b3373ffffffffffffffffffffffffffffffffffffffff167ff7aaf024511d9982df8cd0d437c71c30106e6848cd1ba3d288d7a9c0e276aeda826040518082815260200191505060405180910390a250565b6000611e53826118ac565b1515611e5e57600080fd5b611e7d6001600084815260200190815260200160002060000154612561565b159050919050565b6000611e90826118ac565b1515611e9b57600080fd5b6001600083815260200190815260200160002060060160008473ffffffffffffffffffffffffffffffffffffffff1673ffffffffffffffffffffffffffffffffffffffff16815260200190815260200160002060009054906101000a900460ff16905092915050565b6000611f0f84610fbd565b1515611f1a57600080fd5b6001600085815260200190815260200160002060050160003373ffffffffffffffffffffffffffffffffffffffff1673ffffffffffffffffffffffffffffffffffffffff16815260200190815260200160002060009054906101000a900460ff161515611f8657600080fd5b6001600085815260200190815260200160002060060160003373ffffffffffffffffffffffffffffffffffffffff1673ffffffffffffffffffffffffffffffffffffffff16815260200190815260200160002060009054906101000a900460ff16151515611ff357600080fd5b611ffd3385612459565b600019168383604051808381526020018281526020019250505060405180910390206000191614151561202f57600080fd5b6120393385612354565b9050600183141561206d57806001600086815260200190815260200160002060030160008282540192505081905550612092565b8060016000868152602001908152602001600020600401600082825401925050819055505b600360003373ffffffffffffffffffffffffffffffffffffffff1673ffffffffffffffffffffffffffffffffffffffff16815260200190815260200160002073__DLL___________________________________636d900ed09091866040518363ffffffff167c0100000000000000000000000000000000000000000000000000000000028152600401808381526020018281526020019250505060006040518083038186803b15801561214557600080fd5b505af4158015612159573d6000803e3d6000fd5b50505050600180600086815260200190815260200160002060060160003373ffffffffffffffffffffffffffffffffffffffff1673ffffffffffffffffffffffffffffffffffffffff16815260200190815260200160002060006101000a81548160ff0219169083151502179055503373ffffffffffffffffffffffffffffffffffffffff1683857ff42c78852433ace4bdcb44f6e80c8daae529e2d999c88cf6bf8f77b1e2890fdd84600160008a815260200190815260200160002060030154600160008b81526020019081526020016000206004015460405180848152602001838152602001828152602001935050505060405180910390a450505050565b600080600080612269866127a4565b151561227457600080fd5b6001600087815260200190815260200160002060060160008873ffffffffffffffffffffffffffffffffffffffff1673ffffffffffffffffffffffffffffffffffffffff16815260200190815260200160002060009054906101000a900460ff1615156122e057600080fd5b6122e98661100c565b6122f45760006122f7565b60015b60ff16925082856040518083815260200182815260200192505050604051809103902091506123268787612459565b90508060001916826000191614151561233e57600080fd5b6123488787612354565b93505050509392505050565b6000600473__AttributeStore________________________6350389f5c909161237e8686611b02565b6040518363ffffffff167c010000000000000000000000000000000000000000000000000000000002815260040180838152602001826000191660001916815260200180602001828103825260098152602001807f6e756d546f6b656e730000000000000000000000000000000000000000000000815250602001935050505060206040518083038186803b15801561241657600080fd5b505af415801561242a573d6000803e3d6000fd5b505050506040513d602081101561244057600080fd5b8101908080519060200190929190505050905092915050565b6000600473__AttributeStore________________________6350389f5c90916124838686611b02565b6040518363ffffffff167c0100000000000000000000000000000000000000000000000000000000028152600401808381526020018260001916600019168152602001806020018281038252600a8152602001807f636f6d6d69744861736800000000000000000000000000000000000000000000815250602001935050505060206040518083038186803b15801561251b57600080fd5b505af415801561252f573d6000803e3d6000fd5b505050506040513d602081101561254557600080fd5b8101908080519060200190929190505050600102905092915050565b60008142119050919050565b600060016000838152602001908152602001600020600001549050919050565b60006125e961259b336110f5565b600260003373ffffffffffffffffffffffffffffffffffffffff1673ffffffffffffffffffffffffffffffffffffffff1681526020019081526020016000205461282490919063ffffffff16565b90508181101515156125fa57600080fd5b81600260003373ffffffffffffffffffffffffffffffffffffffff1673ffffffffffffffffffffffffffffffffffffffff16815260200190815260200160002060008282540392505081905550600560009054906101000a900473ffffffffffffffffffffffffffffffffffffffff1673ffffffffffffffffffffffffffffffffffffffff1663a9059cbb33846040518363ffffffff167c0100000000000000000000000000000000000000000000000000000000028152600401808373ffffffffffffffffffffffffffffffffffffffff1673ffffffffffffffffffffffffffffffffffffffff16815260200182815260200192505050602060405180830381600087803b15801561270c57600080fd5b505af1158015612720573d6000803e3d6000fd5b505050506040513d602081101561273657600080fd5b8101908080519060200190929190505050151561275257600080fd5b3373ffffffffffffffffffffffffffffffffffffffff167ffaeb7dbb9992397d26ea1944efd40c80b40f702faf69b46c67ad10aba68ccb79836040518082815260200191505060405180910390a25050565b60006127af826118ac565b15156127ba57600080fd5b6127d96001600084815260200190815260200160002060010154612561565b9050919050565b600560009054906101000a900473ffffffffffffffffffffffffffffffffffffffff1681565b600080828401905083811015151561281a57fe5b8091505092915050565b600082821115151561283257fe5b818303905092915050565b60a060405190810160405280600081526020016000815260200160008152602001600081526020016000815250905600a165627a7a723058209b3c8e0faec52172f452dc6597c529ee41b11e1c9544f76a9c5054d49e5b694a0029",
  "source": "pragma solidity ^0.4.8;\n//import \"tokens/eip20/EIP20Interface.sol\";\nimport \"../token/OceanToken.sol\";\nimport \"dll/DLL.sol\";\nimport \"attrstore/AttributeStore.sol\";\nimport \"../zeppelin/SafeMath.sol\";\n\n/**\n@title Partial-Lock-Commit-Reveal Voting scheme with ERC20 tokens\n@author Team: Aspyn Palatnick, Cem Ozer, Yorke Rhodes\n*/\ncontract PLCRVoting {\n\n    // ============\n    // EVENTS:\n    // ============\n\n    event _VoteCommitted(uint indexed pollID, uint numTokens, address indexed voter);\n    event _VoteRevealed(uint indexed pollID, uint numTokens, uint votesFor, uint votesAgainst, uint indexed choice, address indexed voter);\n    event _PollCreated(uint voteQuorum, uint commitEndDate, uint revealEndDate, uint indexed pollID, address indexed creator);\n    event _VotingRightsGranted(uint numTokens, address indexed voter);\n    event _VotingRightsWithdrawn(uint numTokens, address indexed voter);\n    event _TokensRescued(uint indexed pollID, address indexed voter);\n\n    // ============\n    // DATA STRUCTURES:\n    // ============\n\n    using AttributeStore for AttributeStore.Data;\n    using DLL for DLL.Data;\n    using SafeMath for uint;\n\n    struct Poll {\n        uint commitEndDate;     /// expiration date of commit period for poll\n        uint revealEndDate;     /// expiration date of reveal period for poll\n        uint voteQuorum;\t    /// number of votes required for a proposal to pass\n        uint votesFor;\t\t    /// tally of votes supporting proposal\n        uint votesAgainst;      /// tally of votes countering proposal\n        mapping(address => bool) didCommit;  /// indicates whether an address committed a vote for this poll\n        mapping(address => bool) didReveal;   /// indicates whether an address revealed a vote for this poll\n    }\n\n    // ============\n    // STATE VARIABLES:\n    // ============\n\n    uint constant public INITIAL_POLL_NONCE = 0;\n    uint public pollNonce;\n\n    mapping(uint => Poll) public pollMap; // maps pollID to Poll struct\n    mapping(address => uint) public voteTokenBalance; // maps user's address to voteToken balance\n\n    mapping(address => DLL.Data) dllMap;\n    AttributeStore.Data store;\n\n    //EIP20Interface public token;\n    OceanToken public token;\n\n    // ============\n    // CONSTRUCTOR:\n    // ============\n\n    /**\n    @dev Initializes voteQuorum, commitDuration, revealDuration, and pollNonce in addition to token contract and trusted mapping\n    @param _tokenAddr The address where the ERC20 token contract is deployed\n    */\n    function PLCRVoting(address _tokenAddr) public {\n        //token = EIP20Interface(_tokenAddr);\n        token = OceanToken(_tokenAddr);\n        pollNonce = INITIAL_POLL_NONCE;\n    }\n\n    // ================\n    // TOKEN INTERFACE:\n    // ================\n\n    /**\n    @notice Loads _numTokens ERC20 tokens into the voting contract for one-to-one voting rights\n    @dev Assumes that msg.sender has approved voting contract to spend on their behalf\n    @param _numTokens The number of votingTokens desired in exchange for ERC20 tokens\n    */\n    function requestVotingRights(uint _numTokens) external {\n        require(token.balanceOf(msg.sender) >= _numTokens);\n        voteTokenBalance[msg.sender] += _numTokens;\n        require(token.transferFrom(msg.sender, this, _numTokens));\n        _VotingRightsGranted(_numTokens, msg.sender);\n    }\n\n    /**\n    @notice Withdraw _numTokens ERC20 tokens from the voting contract, revoking these voting rights\n    @param _numTokens The number of ERC20 tokens desired in exchange for voting rights\n    */\n    function withdrawVotingRights(uint _numTokens) external {\n        uint availableTokens = voteTokenBalance[msg.sender].sub(getLockedTokens(msg.sender));\n        require(availableTokens >= _numTokens);\n        voteTokenBalance[msg.sender] -= _numTokens;\n        require(token.transfer(msg.sender, _numTokens));\n        _VotingRightsWithdrawn(_numTokens, msg.sender);\n    }\n\n    /**\n    @dev Unlocks tokens locked in unrevealed vote where poll has ended\n    @param _pollID Integer identifier associated with the target poll\n    */\n    function rescueTokens(uint _pollID) external {\n        require(isExpired(pollMap[_pollID].revealEndDate));\n        require(dllMap[msg.sender].contains(_pollID));\n\n        dllMap[msg.sender].remove(_pollID);\n        _TokensRescued(_pollID, msg.sender);\n    }\n\n    // =================\n    // VOTING INTERFACE:\n    // =================\n\n    /**\n    @notice Commits vote using hash of choice and secret salt to conceal vote until reveal\n    @param _pollID Integer identifier associated with target poll\n    @param _secretHash Commit keccak256 hash of voter's choice and salt (tightly packed in this order)\n    @param _numTokens The number of tokens to be committed towards the target poll\n    @param _prevPollID The ID of the poll that the user has voted the maximum number of tokens in which is still less than or equal to numTokens\n    */\n    function commitVote(uint _pollID, bytes32 _secretHash, uint _numTokens, uint _prevPollID) external {\n        require(commitPeriodActive(_pollID));\n        require(voteTokenBalance[msg.sender] >= _numTokens); // prevent user from overspending\n        require(_pollID != 0);                // prevent user from committing to zero node placeholder\n\n        // Check if _prevPollID exists in the user's DLL or if _prevPollID is 0\n        require(_prevPollID == 0 || dllMap[msg.sender].contains(_prevPollID));\n\n        uint nextPollID = dllMap[msg.sender].getNext(_prevPollID);\n\n        // if nextPollID is equal to _pollID, _pollID is being updated,\n        nextPollID = (nextPollID == _pollID) ? dllMap[msg.sender].getNext(_pollID) : nextPollID;\n\n        require(validPosition(_prevPollID, nextPollID, msg.sender, _numTokens));\n        dllMap[msg.sender].insert(_prevPollID, _pollID, nextPollID);\n\n        bytes32 UUID = attrUUID(msg.sender, _pollID);\n\n        store.setAttribute(UUID, \"numTokens\", _numTokens);\n        store.setAttribute(UUID, \"commitHash\", uint(_secretHash));\n\n        pollMap[_pollID].didCommit[msg.sender] = true;\n        _VoteCommitted(_pollID, _numTokens, msg.sender);\n    }\n\n    /**\n    @dev Compares previous and next poll's committed tokens for sorting purposes\n    @param _prevID Integer identifier associated with previous poll in sorted order\n    @param _nextID Integer identifier associated with next poll in sorted order\n    @param _voter Address of user to check DLL position for\n    @param _numTokens The number of tokens to be committed towards the poll (used for sorting)\n    @return valid Boolean indication of if the specified position maintains the sort\n    */\n    function validPosition(uint _prevID, uint _nextID, address _voter, uint _numTokens) public constant returns (bool valid) {\n        bool prevValid = (_numTokens >= getNumTokens(_voter, _prevID));\n        // if next is zero node, _numTokens does not need to be greater\n        bool nextValid = (_numTokens <= getNumTokens(_voter, _nextID) || _nextID == 0);\n        return prevValid && nextValid;\n    }\n\n    /**\n    @notice Reveals vote with choice and secret salt used in generating commitHash to attribute committed tokens\n    @param _pollID Integer identifier associated with target poll\n    @param _voteOption Vote choice used to generate commitHash for associated poll\n    @param _salt Secret number used to generate commitHash for associated poll\n    */\n    function revealVote(uint _pollID, uint _voteOption, uint _salt) external {\n        // Make sure the reveal period is active\n        require(revealPeriodActive(_pollID));\n        require(pollMap[_pollID].didCommit[msg.sender]);                         // make sure user has committed a vote for this poll\n        require(!pollMap[_pollID].didReveal[msg.sender]);                        // prevent user from revealing multiple times\n        require(keccak256(_voteOption, _salt) == getCommitHash(msg.sender, _pollID)); // compare resultant hash from inputs to original commitHash\n\n        uint numTokens = getNumTokens(msg.sender, _pollID);\n\n        if (_voteOption == 1) {// apply numTokens to appropriate poll choice\n            pollMap[_pollID].votesFor += numTokens;\n        } else {\n            pollMap[_pollID].votesAgainst += numTokens;\n        }\n\n        dllMap[msg.sender].remove(_pollID); // remove the node referring to this vote upon reveal\n        pollMap[_pollID].didReveal[msg.sender] = true;\n\n        _VoteRevealed(_pollID, numTokens, pollMap[_pollID].votesFor, pollMap[_pollID].votesAgainst, _voteOption, msg.sender);\n    }\n\n    /**\n    @param _pollID Integer identifier associated with target poll\n    @param _salt Arbitrarily chosen integer used to generate secretHash\n    @return correctVotes Number of tokens voted for winning option\n    */\n    function getNumPassingTokens(address _voter, uint _pollID, uint _salt) public constant returns (uint correctVotes) {\n        require(pollEnded(_pollID));\n        require(pollMap[_pollID].didReveal[_voter]);\n\n        uint winningChoice = isPassed(_pollID) ? 1 : 0;\n        bytes32 winnerHash = keccak256(winningChoice, _salt);\n        bytes32 commitHash = getCommitHash(_voter, _pollID);\n\n        require(winnerHash == commitHash);\n\n        return getNumTokens(_voter, _pollID);\n    }\n\n    // ==================\n    // POLLING INTERFACE:\n    // ==================\n\n    /**\n    @dev Initiates a poll with canonical configured parameters at pollID emitted by PollCreated event\n    @param _voteQuorum Type of majority (out of 100) that is necessary for poll to be successful\n    @param _commitDuration Length of desired commit period in seconds\n    @param _revealDuration Length of desired reveal period in seconds\n    */\n    function startPoll(uint _voteQuorum, uint _commitDuration, uint _revealDuration) public returns (uint pollID) {\n        pollNonce = pollNonce + 1;\n\n        uint commitEndDate = block.timestamp.add(_commitDuration);\n        uint revealEndDate = commitEndDate.add(_revealDuration);\n\n        pollMap[pollNonce] = Poll({\n            voteQuorum: _voteQuorum,\n            commitEndDate: commitEndDate,\n            revealEndDate: revealEndDate,\n            votesFor: 0,\n            votesAgainst: 0\n        });\n\n        _PollCreated(_voteQuorum, commitEndDate, revealEndDate, pollNonce, msg.sender);\n        return pollNonce;\n    }\n\n    /**\n    @notice Determines if proposal has passed\n    @dev Check if votesFor out of totalVotes exceeds votesQuorum (requires pollEnded)\n    @param _pollID Integer identifier associated with target poll\n    */\n    function isPassed(uint _pollID) constant public returns (bool passed) {\n        require(pollEnded(_pollID));\n\n        Poll memory poll = pollMap[_pollID];\n        return (100 * poll.votesFor) > (poll.voteQuorum * (poll.votesFor + poll.votesAgainst));\n    }\n\n    // ----------------\n    // POLLING HELPERS:\n    // ----------------\n\n    /**\n    @dev Gets the total winning votes for reward distribution purposes\n    @param _pollID Integer identifier associated with target poll\n    @return Total number of votes committed to the winning option for specified poll\n    */\n    function getTotalNumberOfTokensForWinningOption(uint _pollID) constant public returns (uint numTokens) {\n        require(pollEnded(_pollID));\n\n        if (isPassed(_pollID))\n            return pollMap[_pollID].votesFor;\n        else\n            return pollMap[_pollID].votesAgainst;\n    }\n\n    /**\n    @notice Determines if poll is over\n    @dev Checks isExpired for specified poll's revealEndDate\n    @return Boolean indication of whether polling period is over\n    */\n    function pollEnded(uint _pollID) constant public returns (bool ended) {\n        require(pollExists(_pollID));\n\n        return isExpired(pollMap[_pollID].revealEndDate);\n    }\n\n    /**\n    @notice Checks if the commit period is still active for the specified poll\n    @dev Checks isExpired for the specified poll's commitEndDate\n    @param _pollID Integer identifier associated with target poll\n    @return Boolean indication of isCommitPeriodActive for target poll\n    */\n    function commitPeriodActive(uint _pollID) constant public returns (bool active) {\n        require(pollExists(_pollID));\n\n        return !isExpired(pollMap[_pollID].commitEndDate);\n    }\n\n    /**\n    @notice Checks if the reveal period is still active for the specified poll\n    @dev Checks isExpired for the specified poll's revealEndDate\n    @param _pollID Integer identifier associated with target poll\n    */\n    function revealPeriodActive(uint _pollID) constant public returns (bool active) {\n        require(pollExists(_pollID));\n\n        return !isExpired(pollMap[_pollID].revealEndDate) && !commitPeriodActive(_pollID);\n    }\n\n    /**\n    @dev Checks if user has committed for specified poll\n    @param _voter Address of user to check against\n    @param _pollID Integer identifier associated with target poll\n    @return Boolean indication of whether user has committed\n    */\n    function didCommit(address _voter, uint _pollID) constant public returns (bool committed) {\n        require(pollExists(_pollID));\n\n        return pollMap[_pollID].didCommit[_voter];\n    }\n\n    /**\n    @dev Checks if user has revealed for specified poll\n    @param _voter Address of user to check against\n    @param _pollID Integer identifier associated with target poll\n    @return Boolean indication of whether user has revealed\n    */\n    function didReveal(address _voter, uint _pollID) constant public returns (bool revealed) {\n        require(pollExists(_pollID));\n\n        return pollMap[_pollID].didReveal[_voter];\n    }\n\n    /**\n    @dev Checks if a poll exists\n    @param _pollID The pollID whose existance is to be evaluated.\n    @return Boolean Indicates whether a poll exists for the provided pollID\n    */\n    function pollExists(uint _pollID) constant public returns (bool exists) {\n        return (_pollID != 0 && _pollID <= pollNonce);\n    }\n\n    // ---------------------------\n    // DOUBLE-LINKED-LIST HELPERS:\n    // ---------------------------\n\n    /**\n    @dev Gets the bytes32 commitHash property of target poll\n    @param _voter Address of user to check against\n    @param _pollID Integer identifier associated with target poll\n    @return Bytes32 hash property attached to target poll\n    */\n    function getCommitHash(address _voter, uint _pollID) constant public returns (bytes32 commitHash) {\n        return bytes32(store.getAttribute(attrUUID(_voter, _pollID), \"commitHash\"));\n    }\n\n    /**\n    @dev Wrapper for getAttribute with attrName=\"numTokens\"\n    @param _voter Address of user to check against\n    @param _pollID Integer identifier associated with target poll\n    @return Number of tokens committed to poll in sorted poll-linked-list\n    */\n    function getNumTokens(address _voter, uint _pollID) constant public returns (uint numTokens) {\n        return store.getAttribute(attrUUID(_voter, _pollID), \"numTokens\");\n    }\n\n    /**\n    @dev Gets top element of sorted poll-linked-list\n    @param _voter Address of user to check against\n    @return Integer identifier to poll with maximum number of tokens committed to it\n    */\n    function getLastNode(address _voter) constant public returns (uint pollID) {\n        return dllMap[_voter].getPrev(0);\n    }\n\n    /**\n    @dev Gets the numTokens property of getLastNode\n    @param _voter Address of user to check against\n    @return Maximum number of tokens committed in poll specified\n    */\n    function getLockedTokens(address _voter) constant public returns (uint numTokens) {\n        return getNumTokens(_voter, getLastNode(_voter));\n    }\n\n    /*\n    @dev Takes the last node in the user's DLL and iterates backwards through the list searching\n    for a node with a value less than or equal to the provided _numTokens value. When such a node\n    is found, if the provided _pollID matches the found nodeID, this operation is an in-place\n    update. In that case, return the previous node of the node being updated. Otherwise return the\n    first node that was found with a value less than or equal to the provided _numTokens.\n    @param _voter The voter whose DLL will be searched\n    @param _numTokens The value for the numTokens attribute in the node to be inserted\n    @return the node which the propoded node should be inserted after\n    */\n    function getInsertPointForNumTokens(address _voter, uint _numTokens, uint _pollID)\n    constant public returns (uint prevNode) {\n      // Get the last node in the list and the number of tokens in that node\n      uint nodeID = getLastNode(_voter);\n      uint tokensInNode = getNumTokens(_voter, nodeID);\n\n      // Iterate backwards through the list until reaching the root node\n      while(nodeID != 0) {\n        // Get the number of tokens in the current node\n        tokensInNode = getNumTokens(_voter, nodeID);\n        if(tokensInNode <= _numTokens) { // We found the insert point!\n          if(nodeID == _pollID) {\n            // This is an in-place update. Return the prev node of the node being updated\n            nodeID = dllMap[_voter].getPrev(nodeID);\n          }\n          // Return the insert point\n          return nodeID;\n        }\n        // We did not find the insert point. Continue iterating backwards through the list\n        nodeID = dllMap[_voter].getPrev(nodeID);\n      }\n\n      // The list is empty, or a smaller value than anything else in the list is being inserted\n      return nodeID;\n    }\n\n    // ----------------\n    // GENERAL HELPERS:\n    // ----------------\n\n    /**\n    @dev Checks if an expiration date has been reached\n    @param _terminationDate Integer timestamp of date to compare current timestamp with\n    @return expired Boolean indication of whether the terminationDate has passed\n    */\n    function isExpired(uint _terminationDate) constant public returns (bool expired) {\n        return (block.timestamp > _terminationDate);\n    }\n\n    function queryTS() constant public returns(uint){\n      return block.timestamp;\n    }\n\n    function queryCommitEndDate(uint _pollID) public returns (uint){\n      return pollMap[_pollID].commitEndDate;\n    }\n\n    function queryRevealEndDate(uint _pollID) public returns (uint){\n      return pollMap[_pollID].revealEndDate;\n    }\n\n    /**\n    @dev Generates an identifier which associates a user and a poll together\n    @param _pollID Integer identifier associated with target poll\n    @return UUID Hash which is deterministic from _user and _pollID\n    */\n    function attrUUID(address _user, uint _pollID) public pure returns (bytes32 UUID) {\n        return keccak256(_user, _pollID);\n    }\n}\n",
  "sourcePath": "/home/dimi/oceanprotocol/plankton-keeper/contracts/plcrvoting/PLCRVoting.sol",
  "compiler": {
    "name": "solc",
    "version": "0.4.24+commit.e67f0147.Emscripten.clang"
  },
  "schemaVersion": "2.0.0",
  "updatedAt": "2018-06-05T09:11:13.599Z"
}